{
  "contractName": "Killer",
  "abi": [
    {
      "inputs": [],
      "stateMutability": "nonpayable",
      "type": "constructor"
    },
    {
      "inputs": [],
      "name": "computeSeed",
      "outputs": [
        {
          "internalType": "uint256",
          "name": "",
          "type": "uint256"
        }
      ],
      "stateMutability": "pure",
      "type": "function"
    }
  ],
  "bytecode": "0x608060405234801561001057600080fd5b5060b28061001f6000396000f3fe6080604052348015600f57600080fd5b506004361060285760003560e01c8063aff1767c14602d575b600080fd5b60336047565b604051603e91906063565b60405180910390f35b600090565b6000819050919050565b605d81604c565b82525050565b6000602082019050607660008301846056565b9291505056fea264697066735822122037697140198e6b2b335e38d28fdfc3d10c31b3ca32c00023c7254ca6e1f1163a64736f6c634300080b0033",
  "immutableReferences": {},
  "source": "// SPDX-License-Identifier: Creative Commons\npragma solidity ^0.8.11;\n\ncontract Killer {\n\n\t\n\tconstructor() {\n\t}\n\n\tfunction computeSeed() public pure returns(uint){\n\t\treturn 0;\n\t}\n}\n",
  "sourcePath": "/home/binderl/Documents/GIT/MP/contracts/Seed.sol",
  "compiler": {
    "name": "solc",
    "version": "0.8.11+commit.d7f03943.Emscripten.clang"
  },
  "schemaVersion": "3.4.3",
  "updatedAt": "2022-01-14T04:04:01.821Z",
  "devdoc": {
    "kind": "dev",
    "methods": {},
    "version": 1
  },
  "userdoc": {
    "kind": "user",
    "methods": {},
    "version": 1
  }
}