{
  "contractName": "MiningProtocol",
  "abi": [
    {
      "inputs": [
        {
          "internalType": "contract Rogue",
          "name": "token",
          "type": "address"
        },
        {
          "internalType": "address",
          "name": "game",
          "type": "address"
        },
        {
          "internalType": "contract ERC721Burnable",
          "name": "asset",
          "type": "address"
        }
      ],
      "stateMutability": "nonpayable",
      "type": "constructor"
    },
    {
      "anonymous": false,
      "inputs": [
        {
          "indexed": false,
          "internalType": "uint256",
          "name": "tokenId",
          "type": "uint256"
        },
        {
          "indexed": false,
          "internalType": "uint256",
          "name": "amount",
          "type": "uint256"
        },
        {
          "indexed": false,
          "internalType": "address",
          "name": "player",
          "type": "address"
        }
      ],
      "name": "Depot",
      "type": "event"
    },
    {
      "inputs": [],
      "name": "captaine",
      "outputs": [
        {
          "internalType": "address",
          "name": "",
          "type": "address"
        }
      ],
      "stateMutability": "view",
      "type": "function",
      "constant": true
    },
    {
      "inputs": [
        {
          "internalType": "uint256",
          "name": "",
          "type": "uint256"
        }
      ],
      "name": "digits",
      "outputs": [
        {
          "internalType": "uint256",
          "name": "",
          "type": "uint256"
        }
      ],
      "stateMutability": "view",
      "type": "function",
      "constant": true
    },
    {
      "inputs": [
        {
          "internalType": "address",
          "name": "",
          "type": "address"
        }
      ],
      "name": "lordLand",
      "outputs": [
        {
          "internalType": "uint256",
          "name": "treasures",
          "type": "uint256"
        },
        {
          "internalType": "uint256",
          "name": "rewardDebt",
          "type": "uint256"
        },
        {
          "internalType": "uint256",
          "name": "idp",
          "type": "uint256"
        }
      ],
      "stateMutability": "view",
      "type": "function",
      "constant": true
    },
    {
      "inputs": [
        {
          "internalType": "uint256",
          "name": "",
          "type": "uint256"
        }
      ],
      "name": "pirates",
      "outputs": [
        {
          "internalType": "uint256",
          "name": "score",
          "type": "uint256"
        },
        {
          "internalType": "uint256",
          "name": "accMPsPerTreasure",
          "type": "uint256"
        },
        {
          "internalType": "uint256",
          "name": "lastTreasuresBurn",
          "type": "uint256"
        },
        {
          "internalType": "uint256",
          "name": "allocPoint",
          "type": "uint256"
        }
      ],
      "stateMutability": "view",
      "type": "function",
      "constant": true
    },
    {
      "inputs": [
        {
          "internalType": "uint256",
          "name": "amount",
          "type": "uint256"
        },
        {
          "internalType": "uint256",
          "name": "tokenId",
          "type": "uint256"
        }
      ],
      "name": "pourParler",
      "outputs": [],
      "stateMutability": "nonpayable",
      "type": "function"
    },
    {
      "inputs": [
        {
          "internalType": "uint256",
          "name": "id",
          "type": "uint256"
        }
      ],
      "name": "cale",
      "outputs": [],
      "stateMutability": "nonpayable",
      "type": "function"
    },
    {
      "inputs": [
        {
          "internalType": "uint256",
          "name": "_idp",
          "type": "uint256"
        },
        {
          "internalType": "address",
          "name": "_user",
          "type": "address"
        }
      ],
      "name": "pendingMPs",
      "outputs": [
        {
          "internalType": "uint256",
          "name": "",
          "type": "uint256"
        }
      ],
      "stateMutability": "view",
      "type": "function",
      "constant": true
    },
    {
      "inputs": [
        {
          "internalType": "uint256",
          "name": "lastTreasuresBurn",
          "type": "uint256"
        }
      ],
      "name": "getMultiplier",
      "outputs": [
        {
          "internalType": "uint256",
          "name": "",
          "type": "uint256"
        }
      ],
      "stateMutability": "pure",
      "type": "function",
      "constant": true
    },
    {
      "inputs": [
        {
          "internalType": "uint256",
          "name": "_id",
          "type": "uint256"
        }
      ],
      "name": "prime",
      "outputs": [
        {
          "components": [
            {
              "components": [
                {
                  "internalType": "uint256",
                  "name": "tokenId",
                  "type": "uint256"
                },
                {
                  "internalType": "uint256",
                  "name": "value",
                  "type": "uint256"
                },
                {
                  "internalType": "uint256",
                  "name": "amarrer",
                  "type": "uint256"
                },
                {
                  "internalType": "address",
                  "name": "lordLand",
                  "type": "address"
                }
              ],
              "internalType": "struct MiningProtocol.Item[]",
              "name": "coffre",
              "type": "tuple[]"
            },
            {
              "internalType": "uint256",
              "name": "score",
              "type": "uint256"
            },
            {
              "internalType": "uint256",
              "name": "accMPsPerTreasure",
              "type": "uint256"
            },
            {
              "internalType": "uint256",
              "name": "lastTreasuresBurn",
              "type": "uint256"
            },
            {
              "internalType": "uint256",
              "name": "allocPoint",
              "type": "uint256"
            }
          ],
          "internalType": "struct MiningProtocol.Pirate",
          "name": "",
          "type": "tuple"
        }
      ],
      "stateMutability": "view",
      "type": "function",
      "constant": true
    },
    {
      "inputs": [
        {
          "internalType": "uint256",
          "name": "_id",
          "type": "uint256"
        },
        {
          "internalType": "uint256",
          "name": "_idp",
          "type": "uint256"
        }
      ],
      "name": "marcheSurLaPlanche",
      "outputs": [],
      "stateMutability": "nonpayable",
      "type": "function"
    },
    {
      "inputs": [],
      "name": "purge",
      "outputs": [],
      "stateMutability": "nonpayable",
      "type": "function"
    },
    {
      "inputs": [
        {
          "internalType": "uint256",
          "name": "_idp",
          "type": "uint256"
        },
        {
          "internalType": "uint256",
          "name": "_id",
          "type": "uint256"
        }
      ],
      "name": "mutinerie",
      "outputs": [],
      "stateMutability": "nonpayable",
      "type": "function"
    },
    {
      "inputs": [],
      "name": "bourse",
      "outputs": [
        {
          "internalType": "uint256",
          "name": "",
          "type": "uint256"
        }
      ],
      "stateMutability": "view",
      "type": "function",
      "constant": true
    },
    {
      "inputs": [],
      "name": "_digit",
      "outputs": [],
      "stateMutability": "nonpayable",
      "type": "function"
    },
    {
      "inputs": [
        {
          "internalType": "address",
          "name": "",
          "type": "address"
        },
        {
          "internalType": "address",
          "name": "",
          "type": "address"
        },
        {
          "internalType": "uint256",
          "name": "",
          "type": "uint256"
        },
        {
          "internalType": "bytes",
          "name": "",
          "type": "bytes"
        }
      ],
      "name": "onERC721Received",
      "outputs": [
        {
          "internalType": "bytes4",
          "name": "",
          "type": "bytes4"
        }
      ],
      "stateMutability": "pure",
      "type": "function",
      "constant": true
    }
  ],
  "bytecode": "0x60806040523480156200001157600080fd5b5060405162002a7438038062002a748339818101604052810190620000379190620002af565b33600060016101000a81548173ffffffffffffffffffffffffffffffffffffffff021916908373ffffffffffffffffffffffffffffffffffffffff16021790555060008060006101000a81548160ff02191690831515021790555082600460006101000a81548173ffffffffffffffffffffffffffffffffffffffff021916908373ffffffffffffffffffffffffffffffffffffffff16021790555081600260006101000a81548173ffffffffffffffffffffffffffffffffffffffff021916908373ffffffffffffffffffffffffffffffffffffffff16021790555080600360006101000a81548173ffffffffffffffffffffffffffffffffffffffff021916908373ffffffffffffffffffffffffffffffffffffffff160217905550734c5b3736e059b60b8d2f476dec45ab9b721badcd600160006101000a81548173ffffffffffffffffffffffffffffffffffffffff021916908373ffffffffffffffffffffffffffffffffffffffff16021790555060016005819055505050506200030b565b600080fd5b600073ffffffffffffffffffffffffffffffffffffffff82169050919050565b6000620001ed82620001c0565b9050919050565b60006200020182620001e0565b9050919050565b6200021381620001f4565b81146200021f57600080fd5b50565b600081519050620002338162000208565b92915050565b6200024481620001e0565b81146200025057600080fd5b50565b600081519050620002648162000239565b92915050565b60006200027782620001e0565b9050919050565b62000289816200026a565b81146200029557600080fd5b50565b600081519050620002a9816200027e565b92915050565b600080600060608486031215620002cb57620002ca620001bb565b5b6000620002db8682870162000222565b9350506020620002ee8682870162000253565b9250506040620003018682870162000298565b9150509250925092565b612759806200031b6000396000f3fe608060405234801561001057600080fd5b50600436106100f55760003560e01c806370f0c35111610097578063ab448bc911610066578063ab448bc914610272578063adf8252d1461028e578063bf14e956146102be578063d65b5b88146102f1576100f5565b806370f0c351146101ea57806372e0e984146101f45780637b23c90d14610224578063a429274214610254576100f5565b806336d20021116100d357806336d20021146101665780635160ba861461019657806352360bf2146101b25780636eb8b976146101ce576100f5565b806307ed377b146100fa578063104de5641461012c578063150b7a0214610136575b600080fd5b610114600480360381019061010f9190611c48565b61030f565b60405161012393929190611c8e565b60405180910390f35b610134610339565b005b610150600480360381019061014b9190611d56565b61041c565b60405161015d9190611e19565b60405180910390f35b610180600480360381019061017b9190611e34565b610431565b60405161018d9190611e74565b60405180910390f35b6101b060048036038101906101ab9190611e8f565b610671565b005b6101cc60048036038101906101c79190611ecf565b6109b6565b005b6101e860048036038101906101e39190611e8f565b610a52565b005b6101f2610bc9565b005b61020e60048036038101906102099190611ecf565b610c9b565b60405161021b9190612094565b60405180910390f35b61023e60048036038101906102399190611ecf565b610dc8565b60405161024b9190611e74565b60405180910390f35b61025c610dec565b60405161026991906120c5565b60405180910390f35b61028c60048036038101906102879190611e8f565b610e12565b005b6102a860048036038101906102a39190611ecf565b611100565b6040516102b59190611e74565b60405180910390f35b6102d860048036038101906102d39190611ecf565b61110a565b6040516102e894939291906120e0565b60405180910390f35b6102f9611140565b6040516103069190611e74565b60405180910390f35b60086020528060005260406000206000915090508060000154908060010154908060020154905083565b60006103436111e3565b905060005b6004811015610418576000806009836004811061036857610367612125565b5b600502016000018054905011156103d6576009826004811061038d5761038c612125565b5b6005020160000180549050836103a39190612183565b9050600982600481106103b9576103b8612125565b5b6005020160000180549050836103cf91906121e3565b92506103db565b600090505b600781908060018154018082558091505060019003906000526020600020016000909190919091505550808061041090612214565b915050610348565b5050565b600063150b7a0260e01b905095945050505050565b6000806009846004811061044857610447612125565b5b600502016002015490506000600360009054906101000a900473ffffffffffffffffffffffffffffffffffffffff1673ffffffffffffffffffffffffffffffffffffffff166370a08231306040518263ffffffff1660e01b81526004016104af91906120c5565b602060405180830381865afa1580156104cc573d6000803e3d6000fd5b505050506040513d601f19601f820116820180604052508101906104f09190612272565b905060006009866004811061050857610507612125565b5b600502016003015411801561051e575060008114155b156105bc5760006105496009876004811061053c5761053b612125565b5b6005020160030154611100565b905060006006546009886004811061056457610563612125565b5b60050201600401546005548461057a919061229f565b610584919061229f565b61058e91906121e3565b90508264e8d4a51000826105a2919061229f565b6105ac91906121e3565b846105b791906122f9565b935050505b600860008573ffffffffffffffffffffffffffffffffffffffff1673ffffffffffffffffffffffffffffffffffffffff1681526020019081526020016000206001015464e8d4a5100083600860008873ffffffffffffffffffffffffffffffffffffffff1673ffffffffffffffffffffffffffffffffffffffff16815260200190815260200160002060000154610653919061229f565b61065d91906121e3565b610667919061234f565b9250505092915050565b60008054906101000a900460ff166109b25760016000806101000a81548160ff0219169083151502179055506000600860003373ffffffffffffffffffffffffffffffffffffffff1673ffffffffffffffffffffffffffffffffffffffff168152602001908152602001600020905060006002600985600481106106f8576106f7612125565b5b60050201600001848154811061071157610710612125565b5b90600052602060002090600402016001015461072d91906121e3565b9050600460009054906101000a900473ffffffffffffffffffffffffffffffffffffffff1673ffffffffffffffffffffffffffffffffffffffff166323b872dd3330846040518463ffffffff1660e01b815260040161078e93929190612383565b6020604051808303816000875af11580156107ad573d6000803e3d6000fd5b505050506040513d601f19601f820116820180604052508101906107d191906123f2565b50600060086000600987600481106107ec576107eb612125565b5b60050201600001868154811061080557610804612125565b5b906000526020600020906004020160030160009054906101000a900473ffffffffffffffffffffffffffffffffffffffff1673ffffffffffffffffffffffffffffffffffffffff1673ffffffffffffffffffffffffffffffffffffffff16815260200190815260200160002090508060000160008154809291906108889061241f565b9190505550818160010160008282546108a191906122f9565b925050819055506000600986600481106108be576108bd612125565b5b6005020160000185815481106108d7576108d6612125565b5b9060005260206000209060040201600001549050600360009054906101000a900473ffffffffffffffffffffffffffffffffffffffff1673ffffffffffffffffffffffffffffffffffffffff166342842e0e3033846040518463ffffffff1660e01b815260040161094a93929190612383565b600060405180830381600087803b15801561096457600080fd5b505af1158015610978573d6000803e3d6000fd5b505050506109858661121f565b61099333856001015461130e565b60008060006101000a81548160ff021916908315150217905550505050505b5050565b600060019054906101000a900473ffffffffffffffffffffffffffffffffffffffff1673ffffffffffffffffffffffffffffffffffffffff163373ffffffffffffffffffffffffffffffffffffffff1614610a46576040517f08c379a0000000000000000000000000000000000000000000000000000000008152600401610a3d906124cc565b60405180910390fd5b610a4f8161121f565b50565b6000600860003373ffffffffffffffffffffffffffffffffffffffff1673ffffffffffffffffffffffffffffffffffffffff1681526020019081526020016000206000015411610ad7576040517f08c379a0000000000000000000000000000000000000000000000000000000008152600401610ace90612584565b60405180910390fd5b60008054906101000a900460ff16610bc55760016000806101000a81548160ff021916908315150217905550600060098260048110610b1957610b18612125565b5b600502016000018381548110610b3257610b31612125565b5b9060005260206000209060040201600001549050610b51818484611470565b600860003373ffffffffffffffffffffffffffffffffffffffff1673ffffffffffffffffffffffffffffffffffffffff1681526020019081526020016000206000016000815480929190610ba49061241f565b919050555060008060006101000a81548160ff021916908315150217905550505b5050565b6000600860003373ffffffffffffffffffffffffffffffffffffffff1673ffffffffffffffffffffffffffffffffffffffff1681526020019081526020016000206000015411610c4e576040517f08c379a0000000000000000000000000000000000000000000000000000000008152600401610c4590612584565b60405180910390fd5b610c99600860003373ffffffffffffffffffffffffffffffffffffffff1673ffffffffffffffffffffffffffffffffffffffff1681526020019081526020016000206002015461121f565b565b610ca3611b73565b60098260048110610cb757610cb6612125565b5b600502016040518060a001604052908160008201805480602002602001604051908101604052809291908181526020016000905b82821015610d9157838290600052602060002090600402016040518060800160405290816000820154815260200160018201548152602001600282015481526020016003820160009054906101000a900473ffffffffffffffffffffffffffffffffffffffff1673ffffffffffffffffffffffffffffffffffffffff1673ffffffffffffffffffffffffffffffffffffffff168152505081526020019060010190610ceb565b5050505081526020016001820154815260200160028201548152602001600382015481526020016004820154815250509050919050565b60078181548110610dd857600080fd5b906000526020600020016000915090505481565b600060019054906101000a900473ffffffffffffffffffffffffffffffffffffffff1681565b6064600360009054906101000a900473ffffffffffffffffffffffffffffffffffffffff1673ffffffffffffffffffffffffffffffffffffffff166370a08231306040518263ffffffff1660e01b8152600401610e6f91906120c5565b602060405180830381865afa158015610e8c573d6000803e3d6000fd5b505050506040513d601f19601f82011682018060405250810190610eb09190612272565b10610ef0576040517f08c379a0000000000000000000000000000000000000000000000000000000008152600401610ee790612616565b60405180910390fd5b60008054906101000a900460ff166110fc5760016000806101000a81548160ff021916908315150217905550600460009054906101000a900473ffffffffffffffffffffffffffffffffffffffff1673ffffffffffffffffffffffffffffffffffffffff166323b872dd3330856040518463ffffffff1660e01b8152600401610f7b93929190612383565b6020604051808303816000875af1158015610f9a573d6000803e3d6000fd5b505050506040513d601f19601f82011682018060405250810190610fbe91906123f2565b50600360009054906101000a900473ffffffffffffffffffffffffffffffffffffffff1673ffffffffffffffffffffffffffffffffffffffff166342842e0e3330846040518463ffffffff1660e01b815260040161101e93929190612383565b600060405180830381600087803b15801561103857600080fd5b505af115801561104c573d6000803e3d6000fd5b505050507fa10ec9fd1ac798a7344e5b022018223b93fc57b17152cd2352a9e032e3b3acf981833360405161108393929190612636565b60405180910390a1600860003373ffffffffffffffffffffffffffffffffffffffff1673ffffffffffffffffffffffffffffffffffffffff16815260200190815260200160002060000160008154809291906110de90612214565b919050555060006110ef82846115e0565b90506110fa8161121f565b505b5050565b6000819050919050565b6009816004811061111a57600080fd5b600502016000915090508060010154908060020154908060030154908060040154905084565b6000600460009054906101000a900473ffffffffffffffffffffffffffffffffffffffff1673ffffffffffffffffffffffffffffffffffffffff166370a08231306040518263ffffffff1660e01b815260040161119d91906120c5565b602060405180830381865afa1580156111ba573d6000803e3d6000fd5b505050506040513d601f19601f820116820180604052508101906111de9190612272565b905090565b600044426111ef611140565b6040516020016112019392919061268e565b6040516020818303038152906040528051906020012060001c905090565b6000611229611140565b9050600260009054906101000a900473ffffffffffffffffffffffffffffffffffffffff1673ffffffffffffffffffffffffffffffffffffffff16630a0079726040518163ffffffff1660e01b8152600401600060405180830381600087803b15801561129557600080fd5b505af11580156112a9573d6000803e3d6000fd5b505050506000816112b8611140565b6112c2919061234f565b905080600984600481106112d9576112d8612125565b5b6005020160010160008282546112ef91906122f9565b925050819055506112fe610339565b61130960008461179f565b505050565b611316611140565b8111156113ca57600460009054906101000a900473ffffffffffffffffffffffffffffffffffffffff1673ffffffffffffffffffffffffffffffffffffffff1663a9059cbb83611364611140565b6040518363ffffffff1660e01b81526004016113819291906126cb565b6020604051808303816000875af11580156113a0573d6000803e3d6000fd5b505050506040513d601f19601f820116820180604052508101906113c491906123f2565b5061146c565b600460009054906101000a900473ffffffffffffffffffffffffffffffffffffffff1673ffffffffffffffffffffffffffffffffffffffff1663a9059cbb83836040518363ffffffff1660e01b81526004016114279291906126cb565b6020604051808303816000875af1158015611446573d6000803e3d6000fd5b505050506040513d601f19601f8201168201806040525081019061146a91906123f2565b505b5050565b600360009054906101000a900473ffffffffffffffffffffffffffffffffffffffff1673ffffffffffffffffffffffffffffffffffffffff166342966c68846040518263ffffffff1660e01b81526004016114cb9190611e74565b600060405180830381600087803b1580156114e557600080fd5b505af11580156114f9573d6000803e3d6000fd5b5050505061150782826118d6565b600460009054906101000a900473ffffffffffffffffffffffffffffffffffffffff1673ffffffffffffffffffffffffffffffffffffffff166323b872dd30600160009054906101000a900473ffffffffffffffffffffffffffffffffffffffff16611571611140565b6040518463ffffffff1660e01b815260040161158f93929190612383565b6020604051808303816000875af11580156115ae573d6000803e3d6000fd5b505050506040513d601f19601f820116820180604052508101906115d291906123f2565b506115db611ada565b505050565b600080600360009054906101000a900473ffffffffffffffffffffffffffffffffffffffff1673ffffffffffffffffffffffffffffffffffffffff166370a08231306040518263ffffffff1660e01b815260040161163e91906120c5565b602060405180830381865afa15801561165b573d6000803e3d6000fd5b505050506040513d601f19601f8201168201806040525081019061167f9190612272565b905060006004826116909190612183565b905061169a611ba2565b8581600001818152505060018160400181815250508481602001818152505033816060019073ffffffffffffffffffffffffffffffffffffffff16908173ffffffffffffffffffffffffffffffffffffffff1681525050806009836004811061170657611705612125565b5b6005020160000160018160018154018082558091505003906000526020600020906004020160008201518160000155602082015181600101556040820151816002015560608201518160030160006101000a81548173ffffffffffffffffffffffffffffffffffffffff021916908373ffffffffffffffffffffffffffffffffffffffff16021790555090505081935050505092915050565b600981600481106117b3576117b2612125565b5b60050201600001805490508210156118d2576000600982600481106117db576117da612125565b5b6005020160000183815481106117f4576117f3612125565b5b906000526020600020906004020160000154905060006009836004811061181e5761181d612125565b5b60050201600001848154811061183757611836612125565b5b906000526020600020906004020160020154905060098111156118645761185f828585611470565b6118b9565b6009836004811061187857611877612125565b5b60050201600001848154811061189157611890612125565b5b906000526020600020906004020160020160008154809291906118b390612214565b91905055505b6118cf6001856118c991906122f9565b8461179f565b50505b5050565b600981600481106118ea576118e9612125565b5b6005020160000180549050821015611ad65760008290505b60016009836004811061191857611917612125565b5b600502016000018054905061192d919061234f565b811015611a51576009826004811061194857611947612125565b5b6005020160000160018261195c91906122f9565b8154811061196d5761196c612125565b5b90600052602060002090600402016009836004811061198f5761198e612125565b5b6005020160000182815481106119a8576119a7612125565b5b90600052602060002090600402016000820154816000015560018201548160010155600282015481600201556003820160009054906101000a900473ffffffffffffffffffffffffffffffffffffffff168160030160006101000a81548173ffffffffffffffffffffffffffffffffffffffff021916908373ffffffffffffffffffffffffffffffffffffffff1602179055509050508080611a4990612214565b915050611902565b5060098160048110611a6657611a65612125565b5b60050201600001805480611a7d57611a7c6126f4565b5b6001900381819060005260206000209060040201600080820160009055600182016000905560028201600090556003820160006101000a81549073ffffffffffffffffffffffffffffffffffffffff0219169055505090555b5050565b60006127109050600460009054906101000a900473ffffffffffffffffffffffffffffffffffffffff1673ffffffffffffffffffffffffffffffffffffffff166340c10f1930836040518363ffffffff1660e01b8152600401611b3e9291906126cb565b600060405180830381600087803b158015611b5857600080fd5b505af1158015611b6c573d6000803e3d6000fd5b5050505050565b6040518060a0016040528060608152602001600081526020016000815260200160008152602001600081525090565b6040518060800160405280600081526020016000815260200160008152602001600073ffffffffffffffffffffffffffffffffffffffff1681525090565b600080fd5b600080fd5b600073ffffffffffffffffffffffffffffffffffffffff82169050919050565b6000611c1582611bea565b9050919050565b611c2581611c0a565b8114611c3057600080fd5b50565b600081359050611c4281611c1c565b92915050565b600060208284031215611c5e57611c5d611be0565b5b6000611c6c84828501611c33565b91505092915050565b6000819050919050565b611c8881611c75565b82525050565b6000606082019050611ca36000830186611c7f565b611cb06020830185611c7f565b611cbd6040830184611c7f565b949350505050565b611cce81611c75565b8114611cd957600080fd5b50565b600081359050611ceb81611cc5565b92915050565b600080fd5b600080fd5b600080fd5b60008083601f840112611d1657611d15611cf1565b5b8235905067ffffffffffffffff811115611d3357611d32611cf6565b5b602083019150836001820283011115611d4f57611d4e611cfb565b5b9250929050565b600080600080600060808688031215611d7257611d71611be0565b5b6000611d8088828901611c33565b9550506020611d9188828901611c33565b9450506040611da288828901611cdc565b935050606086013567ffffffffffffffff811115611dc357611dc2611be5565b5b611dcf88828901611d00565b92509250509295509295909350565b60007fffffffff0000000000000000000000000000000000000000000000000000000082169050919050565b611e1381611dde565b82525050565b6000602082019050611e2e6000830184611e0a565b92915050565b60008060408385031215611e4b57611e4a611be0565b5b6000611e5985828601611cdc565b9250506020611e6a85828601611c33565b9150509250929050565b6000602082019050611e896000830184611c7f565b92915050565b60008060408385031215611ea657611ea5611be0565b5b6000611eb485828601611cdc565b9250506020611ec585828601611cdc565b9150509250929050565b600060208284031215611ee557611ee4611be0565b5b6000611ef384828501611cdc565b91505092915050565b600081519050919050565b600082825260208201905092915050565b6000819050602082019050919050565b611f3181611c75565b82525050565b611f4081611c0a565b82525050565b608082016000820151611f5c6000850182611f28565b506020820151611f6f6020850182611f28565b506040820151611f826040850182611f28565b506060820151611f956060850182611f37565b50505050565b6000611fa78383611f46565b60808301905092915050565b6000602082019050919050565b6000611fcb82611efc565b611fd58185611f07565b9350611fe083611f18565b8060005b83811015612011578151611ff88882611f9b565b975061200383611fb3565b925050600181019050611fe4565b5085935050505092915050565b600060a083016000830151848203600086015261203b8282611fc0565b91505060208301516120506020860182611f28565b5060408301516120636040860182611f28565b5060608301516120766060860182611f28565b5060808301516120896080860182611f28565b508091505092915050565b600060208201905081810360008301526120ae818461201e565b905092915050565b6120bf81611c0a565b82525050565b60006020820190506120da60008301846120b6565b92915050565b60006080820190506120f56000830187611c7f565b6121026020830186611c7f565b61210f6040830185611c7f565b61211c6060830184611c7f565b95945050505050565b7f4e487b7100000000000000000000000000000000000000000000000000000000600052603260045260246000fd5b7f4e487b7100000000000000000000000000000000000000000000000000000000600052601260045260246000fd5b600061218e82611c75565b915061219983611c75565b9250826121a9576121a8612154565b5b828206905092915050565b7f4e487b7100000000000000000000000000000000000000000000000000000000600052601160045260246000fd5b60006121ee82611c75565b91506121f983611c75565b92508261220957612208612154565b5b828204905092915050565b600061221f82611c75565b91507fffffffffffffffffffffffffffffffffffffffffffffffffffffffffffffffff821415612252576122516121b4565b5b600182019050919050565b60008151905061226c81611cc5565b92915050565b60006020828403121561228857612287611be0565b5b60006122968482850161225d565b91505092915050565b60006122aa82611c75565b91506122b583611c75565b9250817fffffffffffffffffffffffffffffffffffffffffffffffffffffffffffffffff04831182151516156122ee576122ed6121b4565b5b828202905092915050565b600061230482611c75565b915061230f83611c75565b9250827fffffffffffffffffffffffffffffffffffffffffffffffffffffffffffffffff03821115612344576123436121b4565b5b828201905092915050565b600061235a82611c75565b915061236583611c75565b925082821015612378576123776121b4565b5b828203905092915050565b600060608201905061239860008301866120b6565b6123a560208301856120b6565b6123b26040830184611c7f565b949350505050565b60008115159050919050565b6123cf816123ba565b81146123da57600080fd5b50565b6000815190506123ec816123c6565b92915050565b60006020828403121561240857612407611be0565b5b6000612416848285016123dd565b91505092915050565b600061242a82611c75565b9150600082141561243e5761243d6121b4565b5b600182039050919050565b600082825260208201905092915050565b7f4d503a20796f7520617265206e6f7420746865206361707461696e206f66207460008201527f68697320666c6f74746500000000000000000000000000000000000000000000602082015250565b60006124b6602a83612449565b91506124c18261245a565b604082019050919050565b600060208201905081810360008301526124e5816124a9565b9050919050565b7f4d503a206861766520796f75206576657220647265616d2061626f757420736160008201527f79696e67207768617420796f752077616e74206d6f75737361696c6c6f6e203f60208201527f2000000000000000000000000000000000000000000000000000000000000000604082015250565b600061256e604183612449565b9150612579826124ec565b606082019050919050565b6000602082019050818103600083015261259d81612561565b9050919050565b7f4d503a20796f752063616e277420737065616b2068657265207468697320697360008201527f2066756c6c204d6f75737361696c6c6f6e2e0000000000000000000000000000602082015250565b6000612600603283612449565b915061260b826125a4565b604082019050919050565b6000602082019050818103600083015261262f816125f3565b9050919050565b600060608201905061264b6000830186611c7f565b6126586020830185611c7f565b61266560408301846120b6565b949350505050565b6000819050919050565b61268861268382611c75565b61266d565b82525050565b600061269a8286612677565b6020820191506126aa8285612677565b6020820191506126ba8284612677565b602082019150819050949350505050565b60006040820190506126e060008301856120b6565b6126ed6020830184611c7f565b9392505050565b7f4e487b7100000000000000000000000000000000000000000000000000000000600052603160045260246000fdfea2646970667358221220d71b19149d52014662160049403af6e76e7d53b39fd597ae7fd1ede7034777cc64736f6c634300080b0033",
  "immutableReferences": {},
  "source": "// SPDX-License-Identifier: CC\n\npragma solidity ^0.8.11;\nimport \"@openzeppelin/contracts/token/ERC20/IERC20.sol\";\nimport \"@openzeppelin/contracts/token/ERC721/extensions/ERC721Burnable.sol\";\nimport \"./IMagicButton.sol\";\nimport \"./MPs.sol\";\n\n\ncontract MiningProtocol{\n\n\tbool drone;\n\t\n\tstruct Landlubber{\n\t\tuint treasures;\n\t\tuint rewardDebt;\n\t\tuint idp;\n\t}\n\n\tstruct Pirate{ \n\t\tItem[] coffre;\n\t\tuint score;\n\t\tuint accMPsPerTreasure;\n\t\tuint lastTreasuresBurn;\n\t\tuint allocPoint;\n\t}\n\n\tstruct Item{\n\t\tuint tokenId;\n\t\tuint value;\n\t\tuint amarrer;\n\t\taddress lordLand;\n\t}\n\taddress public captaine;\n\taddress void;\n\taddress bachiBouzouk;\n\n\tERC721Burnable treasure;\n\tRogue MPs;\n\n\tuint MPsPerTreasure;\n\tuint totalAllocPoint;\n\n\tuint[] public digits;\t\n\t\n\tmapping(address => Landlubber) public lordLand;\n\n\tPirate[4] public pirates;\n\n\tevent Depot(uint tokenId, uint amount, address player);\n\n\tconstructor(Rogue token, address game, ERC721Burnable asset){\n\t\tcaptaine = msg.sender;\n\t\tdrone = false;\n\t\tMPs = token; \n\t\tbachiBouzouk = game;\n\t\ttreasure = asset;\n\t\tvoid = 0x4c5b3736e059b60b8D2f476dec45Ab9B721baDcD;\n\t\tMPsPerTreasure=1;\n\t}\n\n\tfunction pourParler(uint amount, uint tokenId) external {\n\t\trequire(treasure.balanceOf(address(this)) < 100, \"MP: you can't speak here this is full Moussaillon.\");\n\t\tif(!drone){ \n\t\t\tdrone=true;\n\t\t\tMPs.transferFrom(msg.sender, address(this), amount);\n\t\t\ttreasure.safeTransferFrom(msg.sender, address(this), tokenId);\n\t\t\temit Depot(tokenId, amount, msg.sender);\n\t\t\tlordLand[msg.sender].treasures++;\n\t\t\tuint _idp = _loot(tokenId, amount);\n\t\t\t_cale(_idp);\n\t\t}  \n\t} \n\n\tfunction cale(uint id) external{\n\t\trequire(msg.sender == captaine,\"MP: you are not the captain of this flotte\");\n\t\t_cale(id);\n\t}\n\n\tfunction pendingMPs(uint _idp, address _user) external view returns(uint){\n\t\tuint accMPsPerTreasure = pirates[_idp].accMPsPerTreasure;\n\t\tuint treasureSupply = treasure.balanceOf(address(this));\n\t\tif(pirates[_idp].lastTreasuresBurn > 0 && treasureSupply != 0){\n\t\t\tuint multiplier = getMultiplier(pirates[_idp].lastTreasuresBurn);\n\t\t\tuint MPsReward = multiplier * MPsPerTreasure * pirates[_idp].allocPoint/totalAllocPoint;\n\t\t\taccMPsPerTreasure = accMPsPerTreasure + (MPsReward * 1e12/treasureSupply);\n\t\t}\n\t\treturn (lordLand[_user].treasures * accMPsPerTreasure /1e12) - lordLand[_user].rewardDebt;\n\t}\n\n\tfunction getMultiplier(uint lastTreasuresBurn) public pure returns(uint){\n\t\treturn lastTreasuresBurn;\t\n\n\t}\n\n\tfunction prime(uint _id) public view returns(Pirate memory){\n\t\treturn pirates[_id];\n\t}\n\n\tfunction marcheSurLaPlanche(uint _id, uint _idp) public {\n\t\trequire(lordLand[msg.sender].treasures > 0, \"MP: have you ever dream about saying what you want moussaillon ? \");\n\t\tif(!drone){\n\t\t\tdrone=true;\n\t\t\t\tuint _tokenId = pirates[_idp].coffre[_id].tokenId;\n\t\t\t\t_marcheSurLaPlanche(_tokenId, _id, _idp);\n\t\t\t\tlordLand[msg.sender].treasures--;\n\t\t\tdrone=false;\n\t\t}\n\t}\n\n\tfunction purge() public {\n\t\trequire(lordLand[msg.sender].treasures > 0, \"MP: have you ever dream about saying what you want moussaillon ? \");\n\t\t_cale(lordLand[msg.sender].idp);\n\t}\n\n\tfunction _caviste(uint start, uint tokenId, uint idp) internal pure returns(uint) {\n\t\treturn start+tokenId+idp;\n\t}\n\n\n\tfunction _marcheSurLaPlanche(uint _tokenId, uint _id, uint _idp) internal{\n\t\ttreasure.burn(_tokenId);\n\t\t_remove(_id, _idp);\t\n\t\tMPs.transferFrom(address(this), void, bourse());\n\t\t_boujaron();\n\t}\n\n\tfunction mutinerie(uint _idp, uint _id) external {\n\t\tif (!drone){\n\t\t\tdrone = true;\n\t\t\tLandlubber storage _lordLand = lordLand[msg.sender];\n\t\t\tuint amount = pirates[_idp].coffre[_id].value/2;\n\t\t\tMPs.transferFrom(msg.sender, address(this), amount);\n\t\t\tLandlubber storage _receleur = lordLand[pirates[_idp].coffre[_id].lordLand];\n\t\t\t_receleur.treasures--;\n\t\t\t_receleur.rewardDebt+=amount;\n\t\t\tuint _tokenId = pirates[_idp].coffre[_id].tokenId;\n\t\t\ttreasure.safeTransferFrom(address(this), msg.sender, _tokenId);\n\t\t\t_cale(_idp);\n\t\t\tsafePirateTransfer(msg.sender, _lordLand.rewardDebt);\n\t\t\tdrone=false;\n\t\t}\n\t}\n\n\tfunction _boujaron() internal{\n\t\tuint _grog = 10000;\t\n\t\tMPs.mint(address(this), _grog);\n\t}\n\t\n\tfunction safePirateTransfer(address _to, uint256 _amount) internal {\n\t\tif (_amount > bourse()) {\n\t\t\tMPs.transfer(_to, bourse());\n\t\t} \n\t\telse {\n\t\t\tMPs.transfer(_to, _amount);\t\t\t\n\t\t}\n\t}\n\n\tfunction bourse() public view returns(uint){\n\t\treturn MPs.balanceOf(address(this));\n\t}\n\n\tfunction _cale(uint _id) internal{\n\t\tuint _last = bourse() ;\n\t\tIMiningButton(bachiBouzouk).pushButton();\n\t\tuint _amount = bourse() - _last; \n\t\tpirates[_id].score+=_amount;\n\t\t_digit();\n\t\t_bamboche(0, _id) ;\n\t}\n\n\tfunction _digit() public{\n\t\tuint _seed = _charnier();\n\t\tfor(uint i = 0; i < pirates.length; i++)\t{\n\t\t\tuint digit;\n\t\t\tif(pirates[i].coffre.length > 0){\n\t\t\t\tdigit = uint(_seed % pirates[i].coffre.length);\n\t\t\t\t_seed =uint( _seed / pirates[i].coffre.length);\n\t\t\t}\n\t\t\telse\n\t\t\t\tdigit = 0;\n\t\t\tdigits.push(digit);\n\t\t}\n\t} \n\n\tfunction _bamboche(uint _idx, uint _idp) internal {\n\t\tif(_idx < pirates[_idp].coffre.length){\n\t\t\tuint _tokenId = pirates[_idp].coffre[_idx].tokenId;\n\t\t\tuint _sabordage = pirates[_idp].coffre[_idx].amarrer;\n\t\t\tif (_sabordage > 9)\n\t\t\t\t_marcheSurLaPlanche(_tokenId, _idx, _idp);\n\t\t\telse\n\t\t\t\tpirates[_idp].coffre[_idx].amarrer++;\n\t\t\t_bamboche(_idx + 1, _idp);\n\t\t}\n\t} \n\n\tfunction _loot(uint _tokenId, uint _amount) internal returns(uint){\n\t\tuint _treasures = treasure.balanceOf(address(this));\n\t\tuint idp = _treasures % 4;\n\t\tItem memory _item;\n\t\t_item.tokenId = _tokenId;\n\t\t_item.amarrer = 1;\n\t\t_item.value = _amount;\n\t\t_item.lordLand = msg.sender;\n\t\tpirates[idp].coffre.push() = _item;\n\t\treturn idp;\n \t}  \n\n\tfunction _charnier() internal view returns(uint){\n\t\treturn uint(keccak256(abi.encodePacked(block.difficulty, block.timestamp, bourse())));\n\t}\n\n\tfunction onERC721Received(\n\t\taddress,\n\t\taddress,\n\t\tuint256,\n\t\tbytes calldata\n\t) external pure returns (bytes4){\n\t\treturn(this.onERC721Received.selector);\n\t}\n\t    \n\tfunction _remove(uint index, uint idp) internal {\n\t\tif (index < pirates[idp].coffre.length){\n\t\t\tfor (uint i = index; i < pirates[idp].coffre.length - 1; i++){          \n\t\t\t\tpirates[idp].coffre[i] = pirates[idp].coffre[i + 1];\t\t\t\t\t\t\t\t\t\t\t\t\t\t\t\t\t       \n\t \t\t}\t\t\t\t\t\t\t\t\t\t\t\t\t\t\n\t\t\t\tpirates[idp].coffre.pop();\n\t\t}\n\t}\n}\n\n",
  "sourcePath": "/home/binderl/Documents/GIT/MP/contracts/MP.sol",
  "compiler": {
    "name": "solc",
    "version": "0.8.11+commit.d7f03943.Emscripten.clang"
  },
  "schemaVersion": "3.4.3",
  "updatedAt": "2022-01-25T12:20:44.723Z",
  "networkType": "ethereum",
  "devdoc": {
    "kind": "dev",
    "methods": {},
    "version": 1
  },
  "userdoc": {
    "kind": "user",
    "methods": {},
    "version": 1
  }
}