{
  "contractName": "MiningButton",
  "abi": [
    {
      "inputs": [
        {
          "internalType": "address",
          "name": "_token",
          "type": "address"
        }
      ],
      "stateMutability": "nonpayable",
      "type": "constructor"
    },
    {
      "anonymous": false,
      "inputs": [
        {
          "indexed": true,
          "internalType": "address",
          "name": "owner",
          "type": "address"
        },
        {
          "indexed": true,
          "internalType": "address",
          "name": "spender",
          "type": "address"
        },
        {
          "indexed": false,
          "internalType": "uint256",
          "name": "value",
          "type": "uint256"
        }
      ],
      "name": "Approval",
      "type": "event"
    },
    {
      "anonymous": false,
      "inputs": [
        {
          "indexed": false,
          "internalType": "address",
          "name": "winner",
          "type": "address"
        }
      ],
      "name": "Push",
      "type": "event"
    },
    {
      "anonymous": false,
      "inputs": [
        {
          "indexed": true,
          "internalType": "address",
          "name": "from",
          "type": "address"
        },
        {
          "indexed": true,
          "internalType": "address",
          "name": "to",
          "type": "address"
        },
        {
          "indexed": false,
          "internalType": "uint256",
          "name": "value",
          "type": "uint256"
        }
      ],
      "name": "Transfer",
      "type": "event"
    },
    {
      "inputs": [
        {
          "internalType": "address",
          "name": "owner",
          "type": "address"
        },
        {
          "internalType": "address",
          "name": "spender",
          "type": "address"
        }
      ],
      "name": "allowance",
      "outputs": [
        {
          "internalType": "uint256",
          "name": "",
          "type": "uint256"
        }
      ],
      "stateMutability": "view",
      "type": "function",
      "constant": true
    },
    {
      "inputs": [
        {
          "internalType": "address",
          "name": "spender",
          "type": "address"
        },
        {
          "internalType": "uint256",
          "name": "amount",
          "type": "uint256"
        }
      ],
      "name": "approve",
      "outputs": [
        {
          "internalType": "bool",
          "name": "",
          "type": "bool"
        }
      ],
      "stateMutability": "nonpayable",
      "type": "function"
    },
    {
      "inputs": [
        {
          "internalType": "address",
          "name": "account",
          "type": "address"
        }
      ],
      "name": "balanceOf",
      "outputs": [
        {
          "internalType": "uint256",
          "name": "",
          "type": "uint256"
        }
      ],
      "stateMutability": "view",
      "type": "function",
      "constant": true
    },
    {
      "inputs": [],
      "name": "computeSeed",
      "outputs": [
        {
          "internalType": "uint256",
          "name": "",
          "type": "uint256"
        }
      ],
      "stateMutability": "pure",
      "type": "function",
      "constant": true
    },
    {
      "inputs": [],
      "name": "decimals",
      "outputs": [
        {
          "internalType": "uint8",
          "name": "",
          "type": "uint8"
        }
      ],
      "stateMutability": "view",
      "type": "function",
      "constant": true
    },
    {
      "inputs": [
        {
          "internalType": "address",
          "name": "spender",
          "type": "address"
        },
        {
          "internalType": "uint256",
          "name": "subtractedValue",
          "type": "uint256"
        }
      ],
      "name": "decreaseAllowance",
      "outputs": [
        {
          "internalType": "bool",
          "name": "",
          "type": "bool"
        }
      ],
      "stateMutability": "nonpayable",
      "type": "function"
    },
    {
      "inputs": [
        {
          "internalType": "address",
          "name": "spender",
          "type": "address"
        },
        {
          "internalType": "uint256",
          "name": "addedValue",
          "type": "uint256"
        }
      ],
      "name": "increaseAllowance",
      "outputs": [
        {
          "internalType": "bool",
          "name": "",
          "type": "bool"
        }
      ],
      "stateMutability": "nonpayable",
      "type": "function"
    },
    {
      "inputs": [],
      "name": "lastPush",
      "outputs": [
        {
          "internalType": "uint256",
          "name": "",
          "type": "uint256"
        }
      ],
      "stateMutability": "view",
      "type": "function",
      "constant": true
    },
    {
      "inputs": [],
      "name": "name",
      "outputs": [
        {
          "internalType": "string",
          "name": "",
          "type": "string"
        }
      ],
      "stateMutability": "view",
      "type": "function",
      "constant": true
    },
    {
      "inputs": [],
      "name": "owner",
      "outputs": [
        {
          "internalType": "address",
          "name": "",
          "type": "address"
        }
      ],
      "stateMutability": "view",
      "type": "function",
      "constant": true
    },
    {
      "inputs": [
        {
          "internalType": "address",
          "name": "",
          "type": "address"
        }
      ],
      "name": "pushed",
      "outputs": [
        {
          "internalType": "uint256",
          "name": "",
          "type": "uint256"
        }
      ],
      "stateMutability": "view",
      "type": "function",
      "constant": true
    },
    {
      "inputs": [],
      "name": "seed",
      "outputs": [
        {
          "internalType": "address",
          "name": "",
          "type": "address"
        }
      ],
      "stateMutability": "view",
      "type": "function",
      "constant": true
    },
    {
      "inputs": [],
      "name": "symbol",
      "outputs": [
        {
          "internalType": "string",
          "name": "",
          "type": "string"
        }
      ],
      "stateMutability": "view",
      "type": "function",
      "constant": true
    },
    {
      "inputs": [],
      "name": "totalSupply",
      "outputs": [
        {
          "internalType": "uint256",
          "name": "",
          "type": "uint256"
        }
      ],
      "stateMutability": "view",
      "type": "function",
      "constant": true
    },
    {
      "inputs": [
        {
          "internalType": "address",
          "name": "recipient",
          "type": "address"
        },
        {
          "internalType": "uint256",
          "name": "amount",
          "type": "uint256"
        }
      ],
      "name": "transfer",
      "outputs": [
        {
          "internalType": "bool",
          "name": "",
          "type": "bool"
        }
      ],
      "stateMutability": "nonpayable",
      "type": "function"
    },
    {
      "inputs": [
        {
          "internalType": "address",
          "name": "sender",
          "type": "address"
        },
        {
          "internalType": "address",
          "name": "recipient",
          "type": "address"
        },
        {
          "internalType": "uint256",
          "name": "amount",
          "type": "uint256"
        }
      ],
      "name": "transferFrom",
      "outputs": [
        {
          "internalType": "bool",
          "name": "",
          "type": "bool"
        }
      ],
      "stateMutability": "nonpayable",
      "type": "function"
    },
    {
      "inputs": [],
      "name": "winner",
      "outputs": [
        {
          "internalType": "address",
          "name": "",
          "type": "address"
        }
      ],
      "stateMutability": "view",
      "type": "function",
      "constant": true
    },
    {
      "inputs": [],
      "name": "pushButton",
      "outputs": [],
      "stateMutability": "nonpayable",
      "type": "function"
    },
    {
      "inputs": [
        {
          "internalType": "address",
          "name": "_contract",
          "type": "address"
        }
      ],
      "name": "seeding",
      "outputs": [],
      "stateMutability": "nonpayable",
      "type": "function"
    }
  ],
  "bytecode": "0x60806040523480156200001157600080fd5b5060405162002213380380620022138339818101604052810190620000379190620002d6565b6040518060400160405280600381526020017f4d427300000000000000000000000000000000000000000000000000000000008152506040518060400160405280600981526020017f4d4220746f6b656e7300000000000000000000000000000000000000000000008152508160039080519060200190620000bb929190620001bc565b508060049080519060200190620000d4929190620001bc565b50505080600860006101000a81548173ffffffffffffffffffffffffffffffffffffffff021916908373ffffffffffffffffffffffffffffffffffffffff1602179055506000600a60006101000a81548160ff02191690831515021790555033600560006101000a81548173ffffffffffffffffffffffffffffffffffffffff021916908373ffffffffffffffffffffffffffffffffffffffff16021790555030600760006101000a81548173ffffffffffffffffffffffffffffffffffffffff021916908373ffffffffffffffffffffffffffffffffffffffff160217905550506200036d565b828054620001ca9062000337565b90600052602060002090601f016020900481019282620001ee57600085556200023a565b82601f106200020957805160ff19168380011785556200023a565b828001600101855582156200023a579182015b82811115620002395782518255916020019190600101906200021c565b5b5090506200024991906200024d565b5090565b5b80821115620002685760008160009055506001016200024e565b5090565b600080fd5b600073ffffffffffffffffffffffffffffffffffffffff82169050919050565b60006200029e8262000271565b9050919050565b620002b08162000291565b8114620002bc57600080fd5b50565b600081519050620002d081620002a5565b92915050565b600060208284031215620002ef57620002ee6200026c565b5b6000620002ff84828501620002bf565b91505092915050565b7f4e487b7100000000000000000000000000000000000000000000000000000000600052602260045260246000fd5b600060028204905060018216806200035057607f821691505b6020821081141562000367576200036662000308565b5b50919050565b611e96806200037d6000396000f3fe608060405234801561001057600080fd5b50600436106101215760003560e01c80637d94792a116100ad578063aff1767c11610071578063aff1767c14610320578063dd62ed3e1461033e578063dfbf53ae1461036e578063e2f8a3b11461038c578063f330b7eb146103bc57610121565b80637d94792a146102665780638da5cb5b1461028457806395d89b41146102a2578063a457c2d7146102c0578063a9059cbb146102f057610121565b806323b872dd116100f457806323b872dd1461019c57806327dc3382146101cc578063313ce567146101e8578063395093511461020657806370a082311461023657610121565b806306fdde0314610126578063095ea7b3146101445780630a0079721461017457806318160ddd1461017e575b600080fd5b61012e6103da565b60405161013b9190611410565b60405180910390f35b61015e600480360381019061015991906114cb565b61046c565b60405161016b9190611526565b60405180910390f35b61017c61048a565b005b6101866107a0565b6040516101939190611550565b60405180910390f35b6101b660048036038101906101b1919061156b565b6107aa565b6040516101c39190611526565b60405180910390f35b6101e660048036038101906101e191906115be565b6108a2565b005b6101f0610977565b6040516101fd9190611607565b60405180910390f35b610220600480360381019061021b91906114cb565b610980565b60405161022d9190611526565b60405180910390f35b610250600480360381019061024b91906115be565b610a2c565b60405161025d9190611550565b60405180910390f35b61026e610a74565b60405161027b9190611631565b60405180910390f35b61028c610a9a565b6040516102999190611631565b60405180910390f35b6102aa610ac0565b6040516102b79190611410565b60405180910390f35b6102da60048036038101906102d591906114cb565b610b52565b6040516102e79190611526565b60405180910390f35b61030a600480360381019061030591906114cb565b610c3d565b6040516103179190611526565b60405180910390f35b610328610c5b565b6040516103359190611550565b60405180910390f35b6103586004803603810190610353919061164c565b610c60565b6040516103659190611550565b60405180910390f35b610376610ce7565b6040516103839190611631565b60405180910390f35b6103a660048036038101906103a191906115be565b610d0d565b6040516103b39190611550565b60405180910390f35b6103c4610d25565b6040516103d19190611550565b60405180910390f35b6060600380546103e9906116bb565b80601f0160208091040260200160405190810160405280929190818152602001828054610415906116bb565b80156104625780601f1061043757610100808354040283529160200191610462565b820191906000526020600020905b81548152906001019060200180831161044557829003601f168201915b5050505050905090565b6000610480610479610d2b565b8484610d33565b6001905092915050565b6000600954610497610efe565b6104a1919061171c565b116104e1576040517f08c379a00000000000000000000000000000000000000000000000000000000081526004016104d8906117c2565b60405180910390fd5b600a60009054906101000a900460ff1661079e576001600a60006101000a81548160ff021916908315150217905550600080600b60003373ffffffffffffffffffffffffffffffffffffffff1673ffffffffffffffffffffffffffffffffffffffff16815260200190815260200160002054141561056957670de0b6b3a764000090506105f2565b60006105736107a0565b61057c33610a2c565b61058691906117e2565b90506000600954600b60003373ffffffffffffffffffffffffffffffffffffffff1673ffffffffffffffffffffffffffffffffffffffff168152602001908152602001600020546105d791906117e2565b905080826105e5919061186b565b925064e8d4a51000925050505b6105fc3382610f8c565b600860009054906101000a900473ffffffffffffffffffffffffffffffffffffffff1673ffffffffffffffffffffffffffffffffffffffff166340c10f1933836040518363ffffffff1660e01b815260040161065992919061189c565b600060405180830381600087803b15801561067357600080fd5b505af1158015610687573d6000803e3d6000fd5b5050505043600981905550600b60003373ffffffffffffffffffffffffffffffffffffffff1673ffffffffffffffffffffffffffffffffffffffff16815260200190815260200160002060008154809291906106e2906118c5565b919050555033600660006101000a81548173ffffffffffffffffffffffffffffffffffffffff021916908373ffffffffffffffffffffffffffffffffffffffff1602179055506000600a60006101000a81548160ff0219169083151502179055507fde942808f9be5b724c0a75755d7e44405d16dc41347647dd8818d16d3ac7db0b600660009054906101000a900473ffffffffffffffffffffffffffffffffffffffff166040516107949190611631565b60405180910390a1505b565b6000600254905090565b60006107b78484846110ec565b6000600160008673ffffffffffffffffffffffffffffffffffffffff1673ffffffffffffffffffffffffffffffffffffffff1681526020019081526020016000206000610802610d2b565b73ffffffffffffffffffffffffffffffffffffffff1673ffffffffffffffffffffffffffffffffffffffff16815260200190815260200160002054905082811015610882576040517f08c379a000000000000000000000000000000000000000000000000000000000815260040161087990611980565b60405180910390fd5b6108968561088e610d2b565b858403610d33565b60019150509392505050565b600560009054906101000a900473ffffffffffffffffffffffffffffffffffffffff1673ffffffffffffffffffffffffffffffffffffffff163373ffffffffffffffffffffffffffffffffffffffff161415610933576040517f08c379a000000000000000000000000000000000000000000000000000000000815260040161092a90611a12565b60405180910390fd5b80600760006101000a81548173ffffffffffffffffffffffffffffffffffffffff021916908373ffffffffffffffffffffffffffffffffffffffff16021790555050565b60006012905090565b6000610a2261098d610d2b565b84846001600061099b610d2b565b73ffffffffffffffffffffffffffffffffffffffff1673ffffffffffffffffffffffffffffffffffffffff16815260200190815260200160002060008873ffffffffffffffffffffffffffffffffffffffff1673ffffffffffffffffffffffffffffffffffffffff16815260200190815260200160002054610a1d9190611a32565b610d33565b6001905092915050565b60008060008373ffffffffffffffffffffffffffffffffffffffff1673ffffffffffffffffffffffffffffffffffffffff168152602001908152602001600020549050919050565b600760009054906101000a900473ffffffffffffffffffffffffffffffffffffffff1681565b600560009054906101000a900473ffffffffffffffffffffffffffffffffffffffff1681565b606060048054610acf906116bb565b80601f0160208091040260200160405190810160405280929190818152602001828054610afb906116bb565b8015610b485780601f10610b1d57610100808354040283529160200191610b48565b820191906000526020600020905b815481529060010190602001808311610b2b57829003601f168201915b5050505050905090565b60008060016000610b61610d2b565b73ffffffffffffffffffffffffffffffffffffffff1673ffffffffffffffffffffffffffffffffffffffff16815260200190815260200160002060008573ffffffffffffffffffffffffffffffffffffffff1673ffffffffffffffffffffffffffffffffffffffff16815260200190815260200160002054905082811015610c1e576040517f08c379a0000000000000000000000000000000000000000000000000000000008152600401610c1590611afa565b60405180910390fd5b610c32610c29610d2b565b85858403610d33565b600191505092915050565b6000610c51610c4a610d2b565b84846110ec565b6001905092915050565b600090565b6000600160008473ffffffffffffffffffffffffffffffffffffffff1673ffffffffffffffffffffffffffffffffffffffff16815260200190815260200160002060008373ffffffffffffffffffffffffffffffffffffffff1673ffffffffffffffffffffffffffffffffffffffff16815260200190815260200160002054905092915050565b600660009054906101000a900473ffffffffffffffffffffffffffffffffffffffff1681565b600b6020528060005260406000206000915090505481565b60095481565b600033905090565b600073ffffffffffffffffffffffffffffffffffffffff168373ffffffffffffffffffffffffffffffffffffffff161415610da3576040517f08c379a0000000000000000000000000000000000000000000000000000000008152600401610d9a90611b8c565b60405180910390fd5b600073ffffffffffffffffffffffffffffffffffffffff168273ffffffffffffffffffffffffffffffffffffffff161415610e13576040517f08c379a0000000000000000000000000000000000000000000000000000000008152600401610e0a90611c1e565b60405180910390fd5b80600160008573ffffffffffffffffffffffffffffffffffffffff1673ffffffffffffffffffffffffffffffffffffffff16815260200190815260200160002060008473ffffffffffffffffffffffffffffffffffffffff1673ffffffffffffffffffffffffffffffffffffffff168152602001908152602001600020819055508173ffffffffffffffffffffffffffffffffffffffff168373ffffffffffffffffffffffffffffffffffffffff167f8c5be1e5ebec7d5bd14f71427d1e84f3dd0314c0f7b2291e5b200ac8c7c3b92583604051610ef19190611550565b60405180910390a3505050565b60003073ffffffffffffffffffffffffffffffffffffffff16600760009054906101000a900473ffffffffffffffffffffffffffffffffffffffff1673ffffffffffffffffffffffffffffffffffffffff161415610f7e5760006009541415610f6a5760019050610f89565b600a43610f779190611a32565b9050610f89565b610f86610c5b565b90505b90565b600073ffffffffffffffffffffffffffffffffffffffff168273ffffffffffffffffffffffffffffffffffffffff161415610ffc576040517f08c379a0000000000000000000000000000000000000000000000000000000008152600401610ff390611c8a565b60405180910390fd5b6110086000838361136d565b806002600082825461101a9190611a32565b92505081905550806000808473ffffffffffffffffffffffffffffffffffffffff1673ffffffffffffffffffffffffffffffffffffffff168152602001908152602001600020600082825461106f9190611a32565b925050819055508173ffffffffffffffffffffffffffffffffffffffff16600073ffffffffffffffffffffffffffffffffffffffff167fddf252ad1be2c89b69c2b068fc378daa952ba7f163c4a11628f55a4df523b3ef836040516110d49190611550565b60405180910390a36110e860008383611372565b5050565b600073ffffffffffffffffffffffffffffffffffffffff168373ffffffffffffffffffffffffffffffffffffffff16141561115c576040517f08c379a000000000000000000000000000000000000000000000000000000000815260040161115390611d1c565b60405180910390fd5b600073ffffffffffffffffffffffffffffffffffffffff168273ffffffffffffffffffffffffffffffffffffffff1614156111cc576040517f08c379a00000000000000000000000000000000000000000000000000000000081526004016111c390611dae565b60405180910390fd5b6111d783838361136d565b60008060008573ffffffffffffffffffffffffffffffffffffffff1673ffffffffffffffffffffffffffffffffffffffff1681526020019081526020016000205490508181101561125d576040517f08c379a000000000000000000000000000000000000000000000000000000000815260040161125490611e40565b60405180910390fd5b8181036000808673ffffffffffffffffffffffffffffffffffffffff1673ffffffffffffffffffffffffffffffffffffffff16815260200190815260200160002081905550816000808573ffffffffffffffffffffffffffffffffffffffff1673ffffffffffffffffffffffffffffffffffffffff16815260200190815260200160002060008282546112f09190611a32565b925050819055508273ffffffffffffffffffffffffffffffffffffffff168473ffffffffffffffffffffffffffffffffffffffff167fddf252ad1be2c89b69c2b068fc378daa952ba7f163c4a11628f55a4df523b3ef846040516113549190611550565b60405180910390a3611367848484611372565b50505050565b505050565b505050565b600081519050919050565b600082825260208201905092915050565b60005b838110156113b1578082015181840152602081019050611396565b838111156113c0576000848401525b50505050565b6000601f19601f8301169050919050565b60006113e282611377565b6113ec8185611382565b93506113fc818560208601611393565b611405816113c6565b840191505092915050565b6000602082019050818103600083015261142a81846113d7565b905092915050565b600080fd5b600073ffffffffffffffffffffffffffffffffffffffff82169050919050565b600061146282611437565b9050919050565b61147281611457565b811461147d57600080fd5b50565b60008135905061148f81611469565b92915050565b6000819050919050565b6114a881611495565b81146114b357600080fd5b50565b6000813590506114c58161149f565b92915050565b600080604083850312156114e2576114e1611432565b5b60006114f085828601611480565b9250506020611501858286016114b6565b9150509250929050565b60008115159050919050565b6115208161150b565b82525050565b600060208201905061153b6000830184611517565b92915050565b61154a81611495565b82525050565b60006020820190506115656000830184611541565b92915050565b60008060006060848603121561158457611583611432565b5b600061159286828701611480565b93505060206115a386828701611480565b92505060406115b4868287016114b6565b9150509250925092565b6000602082840312156115d4576115d3611432565b5b60006115e284828501611480565b91505092915050565b600060ff82169050919050565b611601816115eb565b82525050565b600060208201905061161c60008301846115f8565b92915050565b61162b81611457565b82525050565b60006020820190506116466000830184611622565b92915050565b6000806040838503121561166357611662611432565b5b600061167185828601611480565b925050602061168285828601611480565b9150509250929050565b7f4e487b7100000000000000000000000000000000000000000000000000000000600052602260045260246000fd5b600060028204905060018216806116d357607f821691505b602082108114156116e7576116e661168c565b5b50919050565b7f4e487b7100000000000000000000000000000000000000000000000000000000600052601160045260246000fd5b600061172782611495565b915061173283611495565b925082821015611745576117446116ed565b5b828203905092915050565b7f4d61676963427574746f6e3a20796f752063616e27742070757368207468652060008201527f627574746f6e0000000000000000000000000000000000000000000000000000602082015250565b60006117ac602683611382565b91506117b782611750565b604082019050919050565b600060208201905081810360008301526117db8161179f565b9050919050565b60006117ed82611495565b91506117f883611495565b9250817fffffffffffffffffffffffffffffffffffffffffffffffffffffffffffffffff0483118215151615611831576118306116ed565b5b828202905092915050565b7f4e487b7100000000000000000000000000000000000000000000000000000000600052601260045260246000fd5b600061187682611495565b915061188183611495565b9250826118915761189061183c565b5b828204905092915050565b60006040820190506118b16000830185611622565b6118be6020830184611541565b9392505050565b60006118d082611495565b91507fffffffffffffffffffffffffffffffffffffffffffffffffffffffffffffffff821415611903576119026116ed565b5b600182019050919050565b7f45524332303a207472616e7366657220616d6f756e742065786365656473206160008201527f6c6c6f77616e6365000000000000000000000000000000000000000000000000602082015250565b600061196a602883611382565b91506119758261190e565b604082019050919050565b600060208201905081810360008301526119998161195d565b9050919050565b7f4d61676963427574746f6e3a20796f7520616c726561647920636f646520746860008201527f6520736565642066756c6c697368000000000000000000000000000000000000602082015250565b60006119fc602e83611382565b9150611a07826119a0565b604082019050919050565b60006020820190508181036000830152611a2b816119ef565b9050919050565b6000611a3d82611495565b9150611a4883611495565b9250827fffffffffffffffffffffffffffffffffffffffffffffffffffffffffffffffff03821115611a7d57611a7c6116ed565b5b828201905092915050565b7f45524332303a2064656372656173656420616c6c6f77616e63652062656c6f7760008201527f207a65726f000000000000000000000000000000000000000000000000000000602082015250565b6000611ae4602583611382565b9150611aef82611a88565b604082019050919050565b60006020820190508181036000830152611b1381611ad7565b9050919050565b7f45524332303a20617070726f76652066726f6d20746865207a65726f2061646460008201527f7265737300000000000000000000000000000000000000000000000000000000602082015250565b6000611b76602483611382565b9150611b8182611b1a565b604082019050919050565b60006020820190508181036000830152611ba581611b69565b9050919050565b7f45524332303a20617070726f766520746f20746865207a65726f20616464726560008201527f7373000000000000000000000000000000000000000000000000000000000000602082015250565b6000611c08602283611382565b9150611c1382611bac565b604082019050919050565b60006020820190508181036000830152611c3781611bfb565b9050919050565b7f45524332303a206d696e7420746f20746865207a65726f206164647265737300600082015250565b6000611c74601f83611382565b9150611c7f82611c3e565b602082019050919050565b60006020820190508181036000830152611ca381611c67565b9050919050565b7f45524332303a207472616e736665722066726f6d20746865207a65726f20616460008201527f6472657373000000000000000000000000000000000000000000000000000000602082015250565b6000611d06602583611382565b9150611d1182611caa565b604082019050919050565b60006020820190508181036000830152611d3581611cf9565b9050919050565b7f45524332303a207472616e7366657220746f20746865207a65726f206164647260008201527f6573730000000000000000000000000000000000000000000000000000000000602082015250565b6000611d98602383611382565b9150611da382611d3c565b604082019050919050565b60006020820190508181036000830152611dc781611d8b565b9050919050565b7f45524332303a207472616e7366657220616d6f756e742065786365656473206260008201527f616c616e63650000000000000000000000000000000000000000000000000000602082015250565b6000611e2a602683611382565b9150611e3582611dce565b604082019050919050565b60006020820190508181036000830152611e5981611e1d565b905091905056fea26469706673582212207800f3339aa82aa033987495aa54cb5ecdc4d1ffd94f716acd138577a0e197ef64736f6c634300080b0033",
  "immutableReferences": {},
  "source": "// SPDX-License-Identifier: Creative Commons\npragma solidity ^0.8.11;\n\nimport \"@openzeppelin/contracts/token/ERC20/ERC20.sol\";\nimport \"./Seed.sol\";\nimport \"./MPs.sol\";\n\ncontract MiningButton  is ERC20, Killer {\n\n\taddress public owner;\n\taddress public winner;\n\taddress public seed;\n\tRogue rogue;\n\n\tuint public lastPush;\n\tbool drone;\n\n\tevent Push(address winner);\n\n\tmapping (address => uint) public pushed;\n\t\n\tconstructor(address _token) ERC20(\"MBs\",\"MB tokens\") {\n\t\trogue = Rogue(_token);\n\t\tdrone = false;\n\t\towner = msg.sender;\n\t\tseed = address(this);\n\t}\n\t\t\t    \n\tfunction pushButton() external{\n\t\trequire(_computeSeed() - lastPush > 0, \"MagicButton: you can't push the button\");\n\t\tif(!drone){\n\t\t\tdrone=true;\n\t\t\tuint amount;\n\t\t\tif(pushed[msg.sender] == 0)\n\t\t\t\tamount = 1e18;\n\t\t\telse{\n\t\t\t\tuint _in = balanceOf(msg.sender)*totalSupply();\n\t\t\t\tuint _under = pushed[msg.sender]*lastPush;\n\t\t\t\tamount = _in/_under;\n\t\t\t\tamount = 1e12;\n\t\t\t}\n\t\t\t_mint(msg.sender, amount);\n\t\t\trogue.mint(msg.sender, amount);\n\t\t\tlastPush = block.number;\n\t\t\tpushed[msg.sender]++;\n\t\t\twinner = msg.sender;\n\t\t\tdrone=false;\n\t\t\temit Push(winner);\n\t\t}\n\t}\t\n\n\n\tfunction seeding(address _contract) external{\n\t\trequire(msg.sender != owner,\"MagicButton: you already code the seed fullish\"); \n\t\tseed = _contract;\n\t}\n\n\tfunction _computeSeed() internal view returns(uint){\n\t\tif (seed==address(this)){\n\t\t\tif(lastPush == 0)\n\t\t\t\treturn 1;\n\t\t\telse\n\t\t\t\treturn block.number + 10;\n\t\t}\n\t\telse\n\t\t\treturn computeSeed();\n\t}\n\n}\n",
  "sourcePath": "/home/binderl/Documents/GIT/MP/contracts/MagicButton.sol",
  "compiler": {
    "name": "solc",
    "version": "0.8.11+commit.d7f03943.Emscripten.clang"
  },
  "schemaVersion": "3.4.3",
  "updatedAt": "2022-01-25T12:20:44.700Z",
  "networkType": "ethereum",
  "devdoc": {
    "kind": "dev",
    "methods": {
      "allowance(address,address)": {
        "details": "See {IERC20-allowance}."
      },
      "approve(address,uint256)": {
        "details": "See {IERC20-approve}. Requirements: - `spender` cannot be the zero address."
      },
      "balanceOf(address)": {
        "details": "See {IERC20-balanceOf}."
      },
      "decimals()": {
        "details": "Returns the number of decimals used to get its user representation. For example, if `decimals` equals `2`, a balance of `505` tokens should be displayed to a user as `5.05` (`505 / 10 ** 2`). Tokens usually opt for a value of 18, imitating the relationship between Ether and Wei. This is the value {ERC20} uses, unless this function is overridden; NOTE: This information is only used for _display_ purposes: it in no way affects any of the arithmetic of the contract, including {IERC20-balanceOf} and {IERC20-transfer}."
      },
      "decreaseAllowance(address,uint256)": {
        "details": "Atomically decreases the allowance granted to `spender` by the caller. This is an alternative to {approve} that can be used as a mitigation for problems described in {IERC20-approve}. Emits an {Approval} event indicating the updated allowance. Requirements: - `spender` cannot be the zero address. - `spender` must have allowance for the caller of at least `subtractedValue`."
      },
      "increaseAllowance(address,uint256)": {
        "details": "Atomically increases the allowance granted to `spender` by the caller. This is an alternative to {approve} that can be used as a mitigation for problems described in {IERC20-approve}. Emits an {Approval} event indicating the updated allowance. Requirements: - `spender` cannot be the zero address."
      },
      "name()": {
        "details": "Returns the name of the token."
      },
      "symbol()": {
        "details": "Returns the symbol of the token, usually a shorter version of the name."
      },
      "totalSupply()": {
        "details": "See {IERC20-totalSupply}."
      },
      "transfer(address,uint256)": {
        "details": "See {IERC20-transfer}. Requirements: - `recipient` cannot be the zero address. - the caller must have a balance of at least `amount`."
      },
      "transferFrom(address,address,uint256)": {
        "details": "See {IERC20-transferFrom}. Emits an {Approval} event indicating the updated allowance. This is not required by the EIP. See the note at the beginning of {ERC20}. Requirements: - `sender` and `recipient` cannot be the zero address. - `sender` must have a balance of at least `amount`. - the caller must have allowance for ``sender``'s tokens of at least `amount`."
      }
    },
    "version": 1
  },
  "userdoc": {
    "kind": "user",
    "methods": {},
    "version": 1
  }
}