{
  "contractName": "PropsTesrien",
  "abi": [
    {
      "inputs": [],
      "stateMutability": "nonpayable",
      "type": "constructor"
    },
    {
      "anonymous": false,
      "inputs": [
        {
          "indexed": true,
          "internalType": "address",
          "name": "owner",
          "type": "address"
        },
        {
          "indexed": true,
          "internalType": "address",
          "name": "approved",
          "type": "address"
        },
        {
          "indexed": true,
          "internalType": "uint256",
          "name": "tokenId",
          "type": "uint256"
        }
      ],
      "name": "Approval",
      "type": "event"
    },
    {
      "anonymous": false,
      "inputs": [
        {
          "indexed": true,
          "internalType": "address",
          "name": "owner",
          "type": "address"
        },
        {
          "indexed": true,
          "internalType": "address",
          "name": "operator",
          "type": "address"
        },
        {
          "indexed": false,
          "internalType": "bool",
          "name": "approved",
          "type": "bool"
        }
      ],
      "name": "ApprovalForAll",
      "type": "event"
    },
    {
      "anonymous": false,
      "inputs": [
        {
          "indexed": true,
          "internalType": "address",
          "name": "from",
          "type": "address"
        },
        {
          "indexed": true,
          "internalType": "address",
          "name": "to",
          "type": "address"
        },
        {
          "indexed": true,
          "internalType": "uint256",
          "name": "tokenId",
          "type": "uint256"
        }
      ],
      "name": "Transfer",
      "type": "event"
    },
    {
      "inputs": [
        {
          "internalType": "address",
          "name": "to",
          "type": "address"
        },
        {
          "internalType": "uint256",
          "name": "tokenId",
          "type": "uint256"
        }
      ],
      "name": "approve",
      "outputs": [],
      "stateMutability": "nonpayable",
      "type": "function"
    },
    {
      "inputs": [
        {
          "internalType": "address",
          "name": "owner",
          "type": "address"
        }
      ],
      "name": "balanceOf",
      "outputs": [
        {
          "internalType": "uint256",
          "name": "",
          "type": "uint256"
        }
      ],
      "stateMutability": "view",
      "type": "function",
      "constant": true
    },
    {
      "inputs": [
        {
          "internalType": "uint256",
          "name": "tokenId",
          "type": "uint256"
        }
      ],
      "name": "getApproved",
      "outputs": [
        {
          "internalType": "address",
          "name": "",
          "type": "address"
        }
      ],
      "stateMutability": "view",
      "type": "function",
      "constant": true
    },
    {
      "inputs": [
        {
          "internalType": "address",
          "name": "owner",
          "type": "address"
        },
        {
          "internalType": "address",
          "name": "operator",
          "type": "address"
        }
      ],
      "name": "isApprovedForAll",
      "outputs": [
        {
          "internalType": "bool",
          "name": "",
          "type": "bool"
        }
      ],
      "stateMutability": "view",
      "type": "function",
      "constant": true
    },
    {
      "inputs": [],
      "name": "name",
      "outputs": [
        {
          "internalType": "string",
          "name": "",
          "type": "string"
        }
      ],
      "stateMutability": "view",
      "type": "function",
      "constant": true
    },
    {
      "inputs": [
        {
          "internalType": "uint256",
          "name": "tokenId",
          "type": "uint256"
        }
      ],
      "name": "ownerOf",
      "outputs": [
        {
          "internalType": "address",
          "name": "",
          "type": "address"
        }
      ],
      "stateMutability": "view",
      "type": "function",
      "constant": true
    },
    {
      "inputs": [
        {
          "internalType": "address",
          "name": "from",
          "type": "address"
        },
        {
          "internalType": "address",
          "name": "to",
          "type": "address"
        },
        {
          "internalType": "uint256",
          "name": "tokenId",
          "type": "uint256"
        }
      ],
      "name": "safeTransferFrom",
      "outputs": [],
      "stateMutability": "nonpayable",
      "type": "function"
    },
    {
      "inputs": [
        {
          "internalType": "address",
          "name": "from",
          "type": "address"
        },
        {
          "internalType": "address",
          "name": "to",
          "type": "address"
        },
        {
          "internalType": "uint256",
          "name": "tokenId",
          "type": "uint256"
        },
        {
          "internalType": "bytes",
          "name": "_data",
          "type": "bytes"
        }
      ],
      "name": "safeTransferFrom",
      "outputs": [],
      "stateMutability": "nonpayable",
      "type": "function"
    },
    {
      "inputs": [
        {
          "internalType": "address",
          "name": "operator",
          "type": "address"
        },
        {
          "internalType": "bool",
          "name": "approved",
          "type": "bool"
        }
      ],
      "name": "setApprovalForAll",
      "outputs": [],
      "stateMutability": "nonpayable",
      "type": "function"
    },
    {
      "inputs": [
        {
          "internalType": "bytes4",
          "name": "interfaceId",
          "type": "bytes4"
        }
      ],
      "name": "supportsInterface",
      "outputs": [
        {
          "internalType": "bool",
          "name": "",
          "type": "bool"
        }
      ],
      "stateMutability": "view",
      "type": "function",
      "constant": true
    },
    {
      "inputs": [],
      "name": "symbol",
      "outputs": [
        {
          "internalType": "string",
          "name": "",
          "type": "string"
        }
      ],
      "stateMutability": "view",
      "type": "function",
      "constant": true
    },
    {
      "inputs": [
        {
          "internalType": "uint256",
          "name": "index",
          "type": "uint256"
        }
      ],
      "name": "tokenByIndex",
      "outputs": [
        {
          "internalType": "uint256",
          "name": "",
          "type": "uint256"
        }
      ],
      "stateMutability": "view",
      "type": "function",
      "constant": true
    },
    {
      "inputs": [
        {
          "internalType": "address",
          "name": "owner",
          "type": "address"
        },
        {
          "internalType": "uint256",
          "name": "index",
          "type": "uint256"
        }
      ],
      "name": "tokenOfOwnerByIndex",
      "outputs": [
        {
          "internalType": "uint256",
          "name": "",
          "type": "uint256"
        }
      ],
      "stateMutability": "view",
      "type": "function",
      "constant": true
    },
    {
      "inputs": [
        {
          "internalType": "uint256",
          "name": "tokenId",
          "type": "uint256"
        }
      ],
      "name": "tokenURI",
      "outputs": [
        {
          "internalType": "string",
          "name": "",
          "type": "string"
        }
      ],
      "stateMutability": "view",
      "type": "function",
      "constant": true
    },
    {
      "inputs": [],
      "name": "totalSupply",
      "outputs": [
        {
          "internalType": "uint256",
          "name": "",
          "type": "uint256"
        }
      ],
      "stateMutability": "view",
      "type": "function",
      "constant": true
    },
    {
      "inputs": [
        {
          "internalType": "address",
          "name": "from",
          "type": "address"
        },
        {
          "internalType": "address",
          "name": "to",
          "type": "address"
        },
        {
          "internalType": "uint256",
          "name": "tokenId",
          "type": "uint256"
        }
      ],
      "name": "transferFrom",
      "outputs": [],
      "stateMutability": "nonpayable",
      "type": "function"
    },
    {
      "inputs": [
        {
          "internalType": "address",
          "name": "to",
          "type": "address"
        },
        {
          "internalType": "uint256",
          "name": "_tokenId",
          "type": "uint256"
        }
      ],
      "name": "mint",
      "outputs": [],
      "stateMutability": "nonpayable",
      "type": "function"
    },
    {
      "inputs": [
        {
          "internalType": "uint256",
          "name": "tokenId",
          "type": "uint256"
        }
      ],
      "name": "burn",
      "outputs": [],
      "stateMutability": "nonpayable",
      "type": "function"
    }
  ],
  "bytecode": "0x60806040523480156200001157600080fd5b506040518060400160405280600b81526020017f4c6f72642773204c616e640000000000000000000000000000000000000000008152506040518060400160405280600281526020017f4c4c000000000000000000000000000000000000000000000000000000000000815250816000908051906020019062000096929190620000f9565b508060019080519060200190620000af929190620000f9565b50505033600a60006101000a81548173ffffffffffffffffffffffffffffffffffffffff021916908373ffffffffffffffffffffffffffffffffffffffff1602179055506200020e565b8280546200010790620001d8565b90600052602060002090601f0160209004810192826200012b576000855562000177565b82601f106200014657805160ff191683800117855562000177565b8280016001018555821562000177579182015b828111156200017657825182559160200191906001019062000159565b5b5090506200018691906200018a565b5090565b5b80821115620001a55760008160009055506001016200018b565b5090565b7f4e487b7100000000000000000000000000000000000000000000000000000000600052602260045260246000fd5b60006002820490506001821680620001f157607f821691505b60208210811415620002085762000207620001a9565b5b50919050565b613225806200021e6000396000f3fe608060405234801561001057600080fd5b50600436106101165760003560e01c806342966c68116100a257806395d89b411161007157806395d89b4114610303578063a22cb46514610321578063b88d4fde1461033d578063c87b56dd14610359578063e985e9c51461038957610116565b806342966c68146102575780634f6ccce7146102735780636352211e146102a357806370a08231146102d357610116565b806318160ddd116100e957806318160ddd146101b557806323b872dd146101d35780632f745c59146101ef57806340c10f191461021f57806342842e0e1461023b57610116565b806301ffc9a71461011b57806306fdde031461014b578063081812fc14610169578063095ea7b314610199575b600080fd5b61013560048036038101906101309190611f31565b6103b9565b6040516101429190611f79565b60405180910390f35b610153610433565b604051610160919061202d565b60405180910390f35b610183600480360381019061017e9190612085565b6104c5565b60405161019091906120f3565b60405180910390f35b6101b360048036038101906101ae919061213a565b61054a565b005b6101bd610662565b6040516101ca9190612189565b60405180910390f35b6101ed60048036038101906101e891906121a4565b61066f565b005b6102096004803603810190610204919061213a565b6106cf565b6040516102169190612189565b60405180910390f35b6102396004803603810190610234919061213a565b610774565b005b610255600480360381019061025091906121a4565b610812565b005b610271600480360381019061026c9190612085565b610832565b005b61028d60048036038101906102889190612085565b61089f565b60405161029a9190612189565b60405180910390f35b6102bd60048036038101906102b89190612085565b610910565b6040516102ca91906120f3565b60405180910390f35b6102ed60048036038101906102e891906121f7565b6109c2565b6040516102fa9190612189565b60405180910390f35b61030b610a7a565b604051610318919061202d565b60405180910390f35b61033b60048036038101906103369190612250565b610b0c565b005b610357600480360381019061035291906123c5565b610b22565b005b610373600480360381019061036e9190612085565b610b84565b604051610380919061202d565b60405180910390f35b6103a3600480360381019061039e9190612448565b610c2b565b6040516103b09190611f79565b60405180910390f35b60007f780e9d63000000000000000000000000000000000000000000000000000000007bffffffffffffffffffffffffffffffffffffffffffffffffffffffff1916827bffffffffffffffffffffffffffffffffffffffffffffffffffffffff1916148061042c575061042b82610cbf565b5b9050919050565b606060008054610442906124b7565b80601f016020809104026020016040519081016040528092919081815260200182805461046e906124b7565b80156104bb5780601f10610490576101008083540402835291602001916104bb565b820191906000526020600020905b81548152906001019060200180831161049e57829003601f168201915b5050505050905090565b60006104d082610da1565b61050f576040517f08c379a00000000000000000000000000000000000000000000000000000000081526004016105069061255b565b60405180910390fd5b6004600083815260200190815260200160002060009054906101000a900473ffffffffffffffffffffffffffffffffffffffff169050919050565b600061055582610910565b90508073ffffffffffffffffffffffffffffffffffffffff168373ffffffffffffffffffffffffffffffffffffffff1614156105c6576040517f08c379a00000000000000000000000000000000000000000000000000000000081526004016105bd906125ed565b60405180910390fd5b8073ffffffffffffffffffffffffffffffffffffffff166105e5610e0d565b73ffffffffffffffffffffffffffffffffffffffff16148061061457506106138161060e610e0d565b610c2b565b5b610653576040517f08c379a000000000000000000000000000000000000000000000000000000000815260040161064a9061267f565b60405180910390fd5b61065d8383610e15565b505050565b6000600880549050905090565b61068061067a610e0d565b82610ece565b6106bf576040517f08c379a00000000000000000000000000000000000000000000000000000000081526004016106b690612711565b60405180910390fd5b6106ca838383610fac565b505050565b60006106da836109c2565b821061071b576040517f08c379a0000000000000000000000000000000000000000000000000000000008152600401610712906127a3565b60405180910390fd5b600660008473ffffffffffffffffffffffffffffffffffffffff1673ffffffffffffffffffffffffffffffffffffffff168152602001908152602001600020600083815260200190815260200160002054905092915050565b600a60009054906101000a900473ffffffffffffffffffffffffffffffffffffffff1673ffffffffffffffffffffffffffffffffffffffff163373ffffffffffffffffffffffffffffffffffffffff1614610804576040517f08c379a00000000000000000000000000000000000000000000000000000000081526004016107fb90612835565b60405180910390fd5b61080e8282611208565b5050565b61082d83838360405180602001604052806000815250610b22565b505050565b61083c3382610ece565b61087b576040517f08c379a0000000000000000000000000000000000000000000000000000000008152600401610872906128c7565b60405180910390fd5b61088481611226565b600b600081548092919061089790612916565b919050555050565b60006108a9610662565b82106108ea576040517f08c379a00000000000000000000000000000000000000000000000000000000081526004016108e1906129d1565b60405180910390fd5b600882815481106108fe576108fd6129f1565b5b90600052602060002001549050919050565b6000806002600084815260200190815260200160002060009054906101000a900473ffffffffffffffffffffffffffffffffffffffff169050600073ffffffffffffffffffffffffffffffffffffffff168173ffffffffffffffffffffffffffffffffffffffff1614156109b9576040517f08c379a00000000000000000000000000000000000000000000000000000000081526004016109b090612a92565b60405180910390fd5b80915050919050565b60008073ffffffffffffffffffffffffffffffffffffffff168273ffffffffffffffffffffffffffffffffffffffff161415610a33576040517f08c379a0000000000000000000000000000000000000000000000000000000008152600401610a2a90612b24565b60405180910390fd5b600360008373ffffffffffffffffffffffffffffffffffffffff1673ffffffffffffffffffffffffffffffffffffffff168152602001908152602001600020549050919050565b606060018054610a89906124b7565b80601f0160208091040260200160405190810160405280929190818152602001828054610ab5906124b7565b8015610b025780601f10610ad757610100808354040283529160200191610b02565b820191906000526020600020905b815481529060010190602001808311610ae557829003601f168201915b5050505050905090565b610b1e610b17610e0d565b8383611337565b5050565b610b33610b2d610e0d565b83610ece565b610b72576040517f08c379a0000000000000000000000000000000000000000000000000000000008152600401610b6990612711565b60405180910390fd5b610b7e848484846114a4565b50505050565b6060610b8f82610da1565b610bce576040517f08c379a0000000000000000000000000000000000000000000000000000000008152600401610bc590612bb6565b60405180910390fd5b6000610bd8611500565b90506000815111610bf85760405180602001604052806000815250610c23565b80610c0284611517565b604051602001610c13929190612c12565b6040516020818303038152906040525b915050919050565b6000600560008473ffffffffffffffffffffffffffffffffffffffff1673ffffffffffffffffffffffffffffffffffffffff16815260200190815260200160002060008373ffffffffffffffffffffffffffffffffffffffff1673ffffffffffffffffffffffffffffffffffffffff16815260200190815260200160002060009054906101000a900460ff16905092915050565b60007f80ac58cd000000000000000000000000000000000000000000000000000000007bffffffffffffffffffffffffffffffffffffffffffffffffffffffff1916827bffffffffffffffffffffffffffffffffffffffffffffffffffffffff19161480610d8a57507f5b5e139f000000000000000000000000000000000000000000000000000000007bffffffffffffffffffffffffffffffffffffffffffffffffffffffff1916827bffffffffffffffffffffffffffffffffffffffffffffffffffffffff1916145b80610d9a5750610d9982611678565b5b9050919050565b60008073ffffffffffffffffffffffffffffffffffffffff166002600084815260200190815260200160002060009054906101000a900473ffffffffffffffffffffffffffffffffffffffff1673ffffffffffffffffffffffffffffffffffffffff1614159050919050565b600033905090565b816004600083815260200190815260200160002060006101000a81548173ffffffffffffffffffffffffffffffffffffffff021916908373ffffffffffffffffffffffffffffffffffffffff160217905550808273ffffffffffffffffffffffffffffffffffffffff16610e8883610910565b73ffffffffffffffffffffffffffffffffffffffff167f8c5be1e5ebec7d5bd14f71427d1e84f3dd0314c0f7b2291e5b200ac8c7c3b92560405160405180910390a45050565b6000610ed982610da1565b610f18576040517f08c379a0000000000000000000000000000000000000000000000000000000008152600401610f0f90612ca8565b60405180910390fd5b6000610f2383610910565b90508073ffffffffffffffffffffffffffffffffffffffff168473ffffffffffffffffffffffffffffffffffffffff161480610f9257508373ffffffffffffffffffffffffffffffffffffffff16610f7a846104c5565b73ffffffffffffffffffffffffffffffffffffffff16145b80610fa35750610fa28185610c2b565b5b91505092915050565b8273ffffffffffffffffffffffffffffffffffffffff16610fcc82610910565b73ffffffffffffffffffffffffffffffffffffffff1614611022576040517f08c379a000000000000000000000000000000000000000000000000000000000815260040161101990612d3a565b60405180910390fd5b600073ffffffffffffffffffffffffffffffffffffffff168273ffffffffffffffffffffffffffffffffffffffff161415611092576040517f08c379a000000000000000000000000000000000000000000000000000000000815260040161108990612dcc565b60405180910390fd5b61109d8383836116e2565b6110a8600082610e15565b6001600360008573ffffffffffffffffffffffffffffffffffffffff1673ffffffffffffffffffffffffffffffffffffffff16815260200190815260200160002060008282546110f89190612dec565b925050819055506001600360008473ffffffffffffffffffffffffffffffffffffffff1673ffffffffffffffffffffffffffffffffffffffff168152602001908152602001600020600082825461114f9190612e20565b92505081905550816002600083815260200190815260200160002060006101000a81548173ffffffffffffffffffffffffffffffffffffffff021916908373ffffffffffffffffffffffffffffffffffffffff160217905550808273ffffffffffffffffffffffffffffffffffffffff168473ffffffffffffffffffffffffffffffffffffffff167fddf252ad1be2c89b69c2b068fc378daa952ba7f163c4a11628f55a4df523b3ef60405160405180910390a4505050565b6112228282604051806020016040528060008152506117f6565b5050565b600061123182610910565b905061123f816000846116e2565b61124a600083610e15565b6001600360008373ffffffffffffffffffffffffffffffffffffffff1673ffffffffffffffffffffffffffffffffffffffff168152602001908152602001600020600082825461129a9190612dec565b925050819055506002600083815260200190815260200160002060006101000a81549073ffffffffffffffffffffffffffffffffffffffff021916905581600073ffffffffffffffffffffffffffffffffffffffff168273ffffffffffffffffffffffffffffffffffffffff167fddf252ad1be2c89b69c2b068fc378daa952ba7f163c4a11628f55a4df523b3ef60405160405180910390a45050565b8173ffffffffffffffffffffffffffffffffffffffff168373ffffffffffffffffffffffffffffffffffffffff1614156113a6576040517f08c379a000000000000000000000000000000000000000000000000000000000815260040161139d90612ec2565b60405180910390fd5b80600560008573ffffffffffffffffffffffffffffffffffffffff1673ffffffffffffffffffffffffffffffffffffffff16815260200190815260200160002060008473ffffffffffffffffffffffffffffffffffffffff1673ffffffffffffffffffffffffffffffffffffffff16815260200190815260200160002060006101000a81548160ff0219169083151502179055508173ffffffffffffffffffffffffffffffffffffffff168373ffffffffffffffffffffffffffffffffffffffff167f17307eab39ab6107e8899845ad3d59bd9653f200f220920489ca2b5937696c31836040516114979190611f79565b60405180910390a3505050565b6114af848484610fac565b6114bb84848484611851565b6114fa576040517f08c379a00000000000000000000000000000000000000000000000000000000081526004016114f190612f54565b60405180910390fd5b50505050565b606060405180602001604052806000815250905090565b6060600082141561155f576040518060400160405280600181526020017f30000000000000000000000000000000000000000000000000000000000000008152509050611673565b600082905060005b6000821461159157808061157a90612916565b915050600a8261158a9190612fa3565b9150611567565b60008167ffffffffffffffff8111156115ad576115ac61229a565b5b6040519080825280601f01601f1916602001820160405280156115df5781602001600182028036833780820191505090505b5090505b6000851461166c576001826115f89190612dec565b9150600a856116079190612fd4565b60306116139190612e20565b60f81b818381518110611629576116286129f1565b5b60200101907effffffffffffffffffffffffffffffffffffffffffffffffffffffffffffff1916908160001a905350600a856116659190612fa3565b94506115e3565b8093505050505b919050565b60007f01ffc9a7000000000000000000000000000000000000000000000000000000007bffffffffffffffffffffffffffffffffffffffffffffffffffffffff1916827bffffffffffffffffffffffffffffffffffffffffffffffffffffffff1916149050919050565b6116ed8383836119d9565b600073ffffffffffffffffffffffffffffffffffffffff168373ffffffffffffffffffffffffffffffffffffffff1614156117305761172b816119de565b61176f565b8173ffffffffffffffffffffffffffffffffffffffff168373ffffffffffffffffffffffffffffffffffffffff161461176e5761176d8382611a27565b5b5b600073ffffffffffffffffffffffffffffffffffffffff168273ffffffffffffffffffffffffffffffffffffffff1614156117b2576117ad81611b94565b6117f1565b8273ffffffffffffffffffffffffffffffffffffffff168273ffffffffffffffffffffffffffffffffffffffff16146117f0576117ef8282611c65565b5b5b505050565b6118008383611ce4565b61180d6000848484611851565b61184c576040517f08c379a000000000000000000000000000000000000000000000000000000000815260040161184390612f54565b60405180910390fd5b505050565b60006118728473ffffffffffffffffffffffffffffffffffffffff16611eb2565b156119cc578373ffffffffffffffffffffffffffffffffffffffff1663150b7a0261189b610e0d565b8786866040518563ffffffff1660e01b81526004016118bd949392919061305a565b6020604051808303816000875af19250505080156118f957506040513d601f19601f820116820180604052508101906118f691906130bb565b60015b61197c573d8060008114611929576040519150601f19603f3d011682016040523d82523d6000602084013e61192e565b606091505b50600081511415611974576040517f08c379a000000000000000000000000000000000000000000000000000000000815260040161196b90612f54565b60405180910390fd5b805181602001fd5b63150b7a0260e01b7bffffffffffffffffffffffffffffffffffffffffffffffffffffffff1916817bffffffffffffffffffffffffffffffffffffffffffffffffffffffff1916149150506119d1565b600190505b949350505050565b505050565b6008805490506009600083815260200190815260200160002081905550600881908060018154018082558091505060019003906000526020600020016000909190919091505550565b60006001611a34846109c2565b611a3e9190612dec565b9050600060076000848152602001908152602001600020549050818114611b23576000600660008673ffffffffffffffffffffffffffffffffffffffff1673ffffffffffffffffffffffffffffffffffffffff168152602001908152602001600020600084815260200190815260200160002054905080600660008773ffffffffffffffffffffffffffffffffffffffff1673ffffffffffffffffffffffffffffffffffffffff168152602001908152602001600020600084815260200190815260200160002081905550816007600083815260200190815260200160002081905550505b6007600084815260200190815260200160002060009055600660008573ffffffffffffffffffffffffffffffffffffffff1673ffffffffffffffffffffffffffffffffffffffff16815260200190815260200160002060008381526020019081526020016000206000905550505050565b60006001600880549050611ba89190612dec565b9050600060096000848152602001908152602001600020549050600060088381548110611bd857611bd76129f1565b5b906000526020600020015490508060088381548110611bfa57611bf96129f1565b5b906000526020600020018190555081600960008381526020019081526020016000208190555060096000858152602001908152602001600020600090556008805480611c4957611c486130e8565b5b6001900381819060005260206000200160009055905550505050565b6000611c70836109c2565b905081600660008573ffffffffffffffffffffffffffffffffffffffff1673ffffffffffffffffffffffffffffffffffffffff168152602001908152602001600020600083815260200190815260200160002081905550806007600084815260200190815260200160002081905550505050565b600073ffffffffffffffffffffffffffffffffffffffff168273ffffffffffffffffffffffffffffffffffffffff161415611d54576040517f08c379a0000000000000000000000000000000000000000000000000000000008152600401611d4b90613163565b60405180910390fd5b611d5d81610da1565b15611d9d576040517f08c379a0000000000000000000000000000000000000000000000000000000008152600401611d94906131cf565b60405180910390fd5b611da9600083836116e2565b6001600360008473ffffffffffffffffffffffffffffffffffffffff1673ffffffffffffffffffffffffffffffffffffffff1681526020019081526020016000206000828254611df99190612e20565b92505081905550816002600083815260200190815260200160002060006101000a81548173ffffffffffffffffffffffffffffffffffffffff021916908373ffffffffffffffffffffffffffffffffffffffff160217905550808273ffffffffffffffffffffffffffffffffffffffff16600073ffffffffffffffffffffffffffffffffffffffff167fddf252ad1be2c89b69c2b068fc378daa952ba7f163c4a11628f55a4df523b3ef60405160405180910390a45050565b600080823b905060008111915050919050565b6000604051905090565b600080fd5b600080fd5b60007fffffffff0000000000000000000000000000000000000000000000000000000082169050919050565b611f0e81611ed9565b8114611f1957600080fd5b50565b600081359050611f2b81611f05565b92915050565b600060208284031215611f4757611f46611ecf565b5b6000611f5584828501611f1c565b91505092915050565b60008115159050919050565b611f7381611f5e565b82525050565b6000602082019050611f8e6000830184611f6a565b92915050565b600081519050919050565b600082825260208201905092915050565b60005b83811015611fce578082015181840152602081019050611fb3565b83811115611fdd576000848401525b50505050565b6000601f19601f8301169050919050565b6000611fff82611f94565b6120098185611f9f565b9350612019818560208601611fb0565b61202281611fe3565b840191505092915050565b600060208201905081810360008301526120478184611ff4565b905092915050565b6000819050919050565b6120628161204f565b811461206d57600080fd5b50565b60008135905061207f81612059565b92915050565b60006020828403121561209b5761209a611ecf565b5b60006120a984828501612070565b91505092915050565b600073ffffffffffffffffffffffffffffffffffffffff82169050919050565b60006120dd826120b2565b9050919050565b6120ed816120d2565b82525050565b600060208201905061210860008301846120e4565b92915050565b612117816120d2565b811461212257600080fd5b50565b6000813590506121348161210e565b92915050565b6000806040838503121561215157612150611ecf565b5b600061215f85828601612125565b925050602061217085828601612070565b9150509250929050565b6121838161204f565b82525050565b600060208201905061219e600083018461217a565b92915050565b6000806000606084860312156121bd576121bc611ecf565b5b60006121cb86828701612125565b93505060206121dc86828701612125565b92505060406121ed86828701612070565b9150509250925092565b60006020828403121561220d5761220c611ecf565b5b600061221b84828501612125565b91505092915050565b61222d81611f5e565b811461223857600080fd5b50565b60008135905061224a81612224565b92915050565b6000806040838503121561226757612266611ecf565b5b600061227585828601612125565b92505060206122868582860161223b565b9150509250929050565b600080fd5b600080fd5b7f4e487b7100000000000000000000000000000000000000000000000000000000600052604160045260246000fd5b6122d282611fe3565b810181811067ffffffffffffffff821117156122f1576122f061229a565b5b80604052505050565b6000612304611ec5565b905061231082826122c9565b919050565b600067ffffffffffffffff8211156123305761232f61229a565b5b61233982611fe3565b9050602081019050919050565b82818337600083830152505050565b600061236861236384612315565b6122fa565b90508281526020810184848401111561238457612383612295565b5b61238f848285612346565b509392505050565b600082601f8301126123ac576123ab612290565b5b81356123bc848260208601612355565b91505092915050565b600080600080608085870312156123df576123de611ecf565b5b60006123ed87828801612125565b94505060206123fe87828801612125565b935050604061240f87828801612070565b925050606085013567ffffffffffffffff8111156124305761242f611ed4565b5b61243c87828801612397565b91505092959194509250565b6000806040838503121561245f5761245e611ecf565b5b600061246d85828601612125565b925050602061247e85828601612125565b9150509250929050565b7f4e487b7100000000000000000000000000000000000000000000000000000000600052602260045260246000fd5b600060028204905060018216806124cf57607f821691505b602082108114156124e3576124e2612488565b5b50919050565b7f4552433732313a20617070726f76656420717565727920666f72206e6f6e657860008201527f697374656e7420746f6b656e0000000000000000000000000000000000000000602082015250565b6000612545602c83611f9f565b9150612550826124e9565b604082019050919050565b6000602082019050818103600083015261257481612538565b9050919050565b7f4552433732313a20617070726f76616c20746f2063757272656e74206f776e6560008201527f7200000000000000000000000000000000000000000000000000000000000000602082015250565b60006125d7602183611f9f565b91506125e28261257b565b604082019050919050565b60006020820190508181036000830152612606816125ca565b9050919050565b7f4552433732313a20617070726f76652063616c6c6572206973206e6f74206f7760008201527f6e6572206e6f7220617070726f76656420666f7220616c6c0000000000000000602082015250565b6000612669603883611f9f565b91506126748261260d565b604082019050919050565b600060208201905081810360008301526126988161265c565b9050919050565b7f4552433732313a207472616e736665722063616c6c6572206973206e6f74206f60008201527f776e6572206e6f7220617070726f766564000000000000000000000000000000602082015250565b60006126fb603183611f9f565b91506127068261269f565b604082019050919050565b6000602082019050818103600083015261272a816126ee565b9050919050565b7f455243373231456e756d657261626c653a206f776e657220696e646578206f7560008201527f74206f6620626f756e6473000000000000000000000000000000000000000000602082015250565b600061278d602b83611f9f565b915061279882612731565b604082019050919050565b600060208201905081810360008301526127bc81612780565b9050919050565b7f50726f70735465737269656e3a2063616c6c6572206973206e6f74206f776e6560008201527f7200000000000000000000000000000000000000000000000000000000000000602082015250565b600061281f602183611f9f565b915061282a826127c3565b604082019050919050565b6000602082019050818103600083015261284e81612812565b9050919050565b7f50726f70735465737269656e3a2063616c6c6572206973206e6f74206f776e6560008201527f72206e6f7220617070726f766564000000000000000000000000000000000000602082015250565b60006128b1602e83611f9f565b91506128bc82612855565b604082019050919050565b600060208201905081810360008301526128e0816128a4565b9050919050565b7f4e487b7100000000000000000000000000000000000000000000000000000000600052601160045260246000fd5b60006129218261204f565b91507fffffffffffffffffffffffffffffffffffffffffffffffffffffffffffffffff821415612954576129536128e7565b5b600182019050919050565b7f455243373231456e756d657261626c653a20676c6f62616c20696e646578206f60008201527f7574206f6620626f756e64730000000000000000000000000000000000000000602082015250565b60006129bb602c83611f9f565b91506129c68261295f565b604082019050919050565b600060208201905081810360008301526129ea816129ae565b9050919050565b7f4e487b7100000000000000000000000000000000000000000000000000000000600052603260045260246000fd5b7f4552433732313a206f776e657220717565727920666f72206e6f6e657869737460008201527f656e7420746f6b656e0000000000000000000000000000000000000000000000602082015250565b6000612a7c602983611f9f565b9150612a8782612a20565b604082019050919050565b60006020820190508181036000830152612aab81612a6f565b9050919050565b7f4552433732313a2062616c616e636520717565727920666f7220746865207a6560008201527f726f206164647265737300000000000000000000000000000000000000000000602082015250565b6000612b0e602a83611f9f565b9150612b1982612ab2565b604082019050919050565b60006020820190508181036000830152612b3d81612b01565b9050919050565b7f4552433732314d657461646174613a2055524920717565727920666f72206e6f60008201527f6e6578697374656e7420746f6b656e0000000000000000000000000000000000602082015250565b6000612ba0602f83611f9f565b9150612bab82612b44565b604082019050919050565b60006020820190508181036000830152612bcf81612b93565b9050919050565b600081905092915050565b6000612bec82611f94565b612bf68185612bd6565b9350612c06818560208601611fb0565b80840191505092915050565b6000612c1e8285612be1565b9150612c2a8284612be1565b91508190509392505050565b7f4552433732313a206f70657261746f7220717565727920666f72206e6f6e657860008201527f697374656e7420746f6b656e0000000000000000000000000000000000000000602082015250565b6000612c92602c83611f9f565b9150612c9d82612c36565b604082019050919050565b60006020820190508181036000830152612cc181612c85565b9050919050565b7f4552433732313a207472616e73666572206f6620746f6b656e2074686174206960008201527f73206e6f74206f776e0000000000000000000000000000000000000000000000602082015250565b6000612d24602983611f9f565b9150612d2f82612cc8565b604082019050919050565b60006020820190508181036000830152612d5381612d17565b9050919050565b7f4552433732313a207472616e7366657220746f20746865207a65726f2061646460008201527f7265737300000000000000000000000000000000000000000000000000000000602082015250565b6000612db6602483611f9f565b9150612dc182612d5a565b604082019050919050565b60006020820190508181036000830152612de581612da9565b9050919050565b6000612df78261204f565b9150612e028361204f565b925082821015612e1557612e146128e7565b5b828203905092915050565b6000612e2b8261204f565b9150612e368361204f565b9250827fffffffffffffffffffffffffffffffffffffffffffffffffffffffffffffffff03821115612e6b57612e6a6128e7565b5b828201905092915050565b7f4552433732313a20617070726f766520746f2063616c6c657200000000000000600082015250565b6000612eac601983611f9f565b9150612eb782612e76565b602082019050919050565b60006020820190508181036000830152612edb81612e9f565b9050919050565b7f4552433732313a207472616e7366657220746f206e6f6e20455243373231526560008201527f63656976657220696d706c656d656e7465720000000000000000000000000000602082015250565b6000612f3e603283611f9f565b9150612f4982612ee2565b604082019050919050565b60006020820190508181036000830152612f6d81612f31565b9050919050565b7f4e487b7100000000000000000000000000000000000000000000000000000000600052601260045260246000fd5b6000612fae8261204f565b9150612fb98361204f565b925082612fc957612fc8612f74565b5b828204905092915050565b6000612fdf8261204f565b9150612fea8361204f565b925082612ffa57612ff9612f74565b5b828206905092915050565b600081519050919050565b600082825260208201905092915050565b600061302c82613005565b6130368185613010565b9350613046818560208601611fb0565b61304f81611fe3565b840191505092915050565b600060808201905061306f60008301876120e4565b61307c60208301866120e4565b613089604083018561217a565b818103606083015261309b8184613021565b905095945050505050565b6000815190506130b581611f05565b92915050565b6000602082840312156130d1576130d0611ecf565b5b60006130df848285016130a6565b91505092915050565b7f4e487b7100000000000000000000000000000000000000000000000000000000600052603160045260246000fd5b7f4552433732313a206d696e7420746f20746865207a65726f2061646472657373600082015250565b600061314d602083611f9f565b915061315882613117565b602082019050919050565b6000602082019050818103600083015261317c81613140565b9050919050565b7f4552433732313a20746f6b656e20616c7265616479206d696e74656400000000600082015250565b60006131b9601c83611f9f565b91506131c482613183565b602082019050919050565b600060208201905081810360008301526131e8816131ac565b905091905056fea26469706673582212200bf8cc03b201ad4cfb7acb9a229232272d79717e6d64ced3294e9c4def9c01f264736f6c634300080b0033",
  "immutableReferences": {},
  "source": "//SPDX-License-Identifier: Unlicense\npragma solidity ^0.8.11;\n\nimport \"@openzeppelin/contracts/token/ERC721/extensions/ERC721Enumerable.sol\";\n\n\n\ncontract PropsTesrien is ERC721Enumerable{\n\n\taddress owner;\n\tuint burned;\n\n\tconstructor()ERC721(\"Lord's Land\", \"LL\"){\n\t\towner = msg.sender;\n\t}\n\t\n\tfunction mint(address to, uint _tokenId) external {\n\t\trequire(msg.sender == owner, \"PropsTesrien: caller is not owner\"); \n\t\t_safeMint(to, _tokenId);\n\t} \n\t\n  function burn(uint256 tokenId) public virtual {\n  \trequire(_isApprovedOrOwner(msg.sender, tokenId), \"PropsTesrien: caller is not owner nor approved\");\n    _burn(tokenId);\n\t\tburned++;\n\t} \n\n\n}\n\n\n\n",
  "sourcePath": "/home/binderl/Documents/GIT/MP/contracts/MPNft.sol",
  "compiler": {
    "name": "solc",
    "version": "0.8.11+commit.d7f03943.Emscripten.clang"
  },
  "schemaVersion": "3.4.3",
  "updatedAt": "2022-01-25T12:20:44.683Z",
  "networkType": "ethereum",
  "devdoc": {
    "kind": "dev",
    "methods": {
      "approve(address,uint256)": {
        "details": "See {IERC721-approve}."
      },
      "balanceOf(address)": {
        "details": "See {IERC721-balanceOf}."
      },
      "getApproved(uint256)": {
        "details": "See {IERC721-getApproved}."
      },
      "isApprovedForAll(address,address)": {
        "details": "See {IERC721-isApprovedForAll}."
      },
      "name()": {
        "details": "See {IERC721Metadata-name}."
      },
      "ownerOf(uint256)": {
        "details": "See {IERC721-ownerOf}."
      },
      "safeTransferFrom(address,address,uint256)": {
        "details": "See {IERC721-safeTransferFrom}."
      },
      "safeTransferFrom(address,address,uint256,bytes)": {
        "details": "See {IERC721-safeTransferFrom}."
      },
      "setApprovalForAll(address,bool)": {
        "details": "See {IERC721-setApprovalForAll}."
      },
      "supportsInterface(bytes4)": {
        "details": "See {IERC165-supportsInterface}."
      },
      "symbol()": {
        "details": "See {IERC721Metadata-symbol}."
      },
      "tokenByIndex(uint256)": {
        "details": "See {IERC721Enumerable-tokenByIndex}."
      },
      "tokenOfOwnerByIndex(address,uint256)": {
        "details": "See {IERC721Enumerable-tokenOfOwnerByIndex}."
      },
      "tokenURI(uint256)": {
        "details": "See {IERC721Metadata-tokenURI}."
      },
      "totalSupply()": {
        "details": "See {IERC721Enumerable-totalSupply}."
      },
      "transferFrom(address,address,uint256)": {
        "details": "See {IERC721-transferFrom}."
      }
    },
    "version": 1
  },
  "userdoc": {
    "kind": "user",
    "methods": {},
    "version": 1
  }
}