{
  "contractName": "Tairreux",
  "abi": [
    {
      "inputs": [
        {
          "internalType": "address",
          "name": "token",
          "type": "address"
        }
      ],
      "stateMutability": "nonpayable",
      "type": "constructor"
    },
    {
      "anonymous": false,
      "inputs": [
        {
          "indexed": true,
          "internalType": "address",
          "name": "owner",
          "type": "address"
        },
        {
          "indexed": true,
          "internalType": "address",
          "name": "spender",
          "type": "address"
        },
        {
          "indexed": false,
          "internalType": "uint256",
          "name": "value",
          "type": "uint256"
        }
      ],
      "name": "Approval",
      "type": "event"
    },
    {
      "anonymous": false,
      "inputs": [
        {
          "indexed": false,
          "internalType": "uint256",
          "name": "shares",
          "type": "uint256"
        }
      ],
      "name": "Compute",
      "type": "event"
    },
    {
      "anonymous": false,
      "inputs": [
        {
          "indexed": true,
          "internalType": "address",
          "name": "previousOwner",
          "type": "address"
        },
        {
          "indexed": true,
          "internalType": "address",
          "name": "newOwner",
          "type": "address"
        }
      ],
      "name": "OwnershipTransferred",
      "type": "event"
    },
    {
      "anonymous": false,
      "inputs": [
        {
          "indexed": true,
          "internalType": "address",
          "name": "from",
          "type": "address"
        },
        {
          "indexed": true,
          "internalType": "address",
          "name": "to",
          "type": "address"
        },
        {
          "indexed": false,
          "internalType": "uint256",
          "name": "value",
          "type": "uint256"
        }
      ],
      "name": "Transfer",
      "type": "event"
    },
    {
      "inputs": [
        {
          "internalType": "address",
          "name": "owner",
          "type": "address"
        },
        {
          "internalType": "address",
          "name": "spender",
          "type": "address"
        }
      ],
      "name": "allowance",
      "outputs": [
        {
          "internalType": "uint256",
          "name": "",
          "type": "uint256"
        }
      ],
      "stateMutability": "view",
      "type": "function",
      "constant": true
    },
    {
      "inputs": [
        {
          "internalType": "address",
          "name": "spender",
          "type": "address"
        },
        {
          "internalType": "uint256",
          "name": "amount",
          "type": "uint256"
        }
      ],
      "name": "approve",
      "outputs": [
        {
          "internalType": "bool",
          "name": "",
          "type": "bool"
        }
      ],
      "stateMutability": "nonpayable",
      "type": "function"
    },
    {
      "inputs": [
        {
          "internalType": "address",
          "name": "account",
          "type": "address"
        }
      ],
      "name": "balanceOf",
      "outputs": [
        {
          "internalType": "uint256",
          "name": "",
          "type": "uint256"
        }
      ],
      "stateMutability": "view",
      "type": "function",
      "constant": true
    },
    {
      "inputs": [],
      "name": "decimals",
      "outputs": [
        {
          "internalType": "uint8",
          "name": "",
          "type": "uint8"
        }
      ],
      "stateMutability": "view",
      "type": "function",
      "constant": true
    },
    {
      "inputs": [
        {
          "internalType": "address",
          "name": "spender",
          "type": "address"
        },
        {
          "internalType": "uint256",
          "name": "subtractedValue",
          "type": "uint256"
        }
      ],
      "name": "decreaseAllowance",
      "outputs": [
        {
          "internalType": "bool",
          "name": "",
          "type": "bool"
        }
      ],
      "stateMutability": "nonpayable",
      "type": "function"
    },
    {
      "inputs": [
        {
          "internalType": "address",
          "name": "spender",
          "type": "address"
        },
        {
          "internalType": "uint256",
          "name": "addedValue",
          "type": "uint256"
        }
      ],
      "name": "increaseAllowance",
      "outputs": [
        {
          "internalType": "bool",
          "name": "",
          "type": "bool"
        }
      ],
      "stateMutability": "nonpayable",
      "type": "function"
    },
    {
      "inputs": [],
      "name": "name",
      "outputs": [
        {
          "internalType": "string",
          "name": "",
          "type": "string"
        }
      ],
      "stateMutability": "view",
      "type": "function",
      "constant": true
    },
    {
      "inputs": [],
      "name": "owner",
      "outputs": [
        {
          "internalType": "address",
          "name": "",
          "type": "address"
        }
      ],
      "stateMutability": "view",
      "type": "function",
      "constant": true
    },
    {
      "inputs": [],
      "name": "parole",
      "outputs": [
        {
          "internalType": "address",
          "name": "",
          "type": "address"
        }
      ],
      "stateMutability": "view",
      "type": "function",
      "constant": true
    },
    {
      "inputs": [],
      "name": "renounceOwnership",
      "outputs": [],
      "stateMutability": "nonpayable",
      "type": "function"
    },
    {
      "inputs": [],
      "name": "symbol",
      "outputs": [
        {
          "internalType": "string",
          "name": "",
          "type": "string"
        }
      ],
      "stateMutability": "view",
      "type": "function",
      "constant": true
    },
    {
      "inputs": [],
      "name": "totalSupply",
      "outputs": [
        {
          "internalType": "uint256",
          "name": "",
          "type": "uint256"
        }
      ],
      "stateMutability": "view",
      "type": "function",
      "constant": true
    },
    {
      "inputs": [
        {
          "internalType": "address",
          "name": "recipient",
          "type": "address"
        },
        {
          "internalType": "uint256",
          "name": "amount",
          "type": "uint256"
        }
      ],
      "name": "transfer",
      "outputs": [
        {
          "internalType": "bool",
          "name": "",
          "type": "bool"
        }
      ],
      "stateMutability": "nonpayable",
      "type": "function"
    },
    {
      "inputs": [
        {
          "internalType": "address",
          "name": "sender",
          "type": "address"
        },
        {
          "internalType": "address",
          "name": "recipient",
          "type": "address"
        },
        {
          "internalType": "uint256",
          "name": "amount",
          "type": "uint256"
        }
      ],
      "name": "transferFrom",
      "outputs": [
        {
          "internalType": "bool",
          "name": "",
          "type": "bool"
        }
      ],
      "stateMutability": "nonpayable",
      "type": "function"
    },
    {
      "inputs": [
        {
          "internalType": "address",
          "name": "newOwner",
          "type": "address"
        }
      ],
      "name": "transferOwnership",
      "outputs": [],
      "stateMutability": "nonpayable",
      "type": "function"
    },
    {
      "inputs": [],
      "name": "bourse",
      "outputs": [
        {
          "internalType": "uint256",
          "name": "",
          "type": "uint256"
        }
      ],
      "stateMutability": "view",
      "type": "function",
      "constant": true
    },
    {
      "inputs": [
        {
          "internalType": "uint256",
          "name": "amount",
          "type": "uint256"
        }
      ],
      "name": "taire",
      "outputs": [],
      "stateMutability": "nonpayable",
      "type": "function"
    },
    {
      "inputs": [],
      "name": "depositAll",
      "outputs": [],
      "stateMutability": "nonpayable",
      "type": "function"
    },
    {
      "inputs": [
        {
          "internalType": "uint256",
          "name": "substrat",
          "type": "uint256"
        }
      ],
      "name": "terre",
      "outputs": [],
      "stateMutability": "nonpayable",
      "type": "function"
    },
    {
      "inputs": [],
      "name": "withdrawAll",
      "outputs": [],
      "stateMutability": "nonpayable",
      "type": "function"
    }
  ],
  "bytecode": "0x60806040526000600660146101000a81548160ff02191690831515021790555060026008553480156200003157600080fd5b5060405162002aac38038062002aac83398181016040528101906200005791906200034e565b6040518060400160405280601381526020017f7374616b65204d50207377617020746f6b656e000000000000000000000000008152506040518060400160405280600581526020017f53744d50730000000000000000000000000000000000000000000000000000008152508160039080519060200190620000db92919062000234565b508060049080519060200190620000f492919062000234565b505050620001176200010b6200016660201b60201c565b6200016e60201b60201c565b4260078190555080600660006101000a81548173ffffffffffffffffffffffffffffffffffffffff021916908373ffffffffffffffffffffffffffffffffffffffff16021790555050620003e5565b600033905090565b6000600560009054906101000a900473ffffffffffffffffffffffffffffffffffffffff16905081600560006101000a81548173ffffffffffffffffffffffffffffffffffffffff021916908373ffffffffffffffffffffffffffffffffffffffff1602179055508173ffffffffffffffffffffffffffffffffffffffff168173ffffffffffffffffffffffffffffffffffffffff167f8be0079c531659141344cd1fd0a4f28419497f9722a3daafe3b4186f6b6457e060405160405180910390a35050565b8280546200024290620003af565b90600052602060002090601f016020900481019282620002665760008555620002b2565b82601f106200028157805160ff1916838001178555620002b2565b82800160010185558215620002b2579182015b82811115620002b157825182559160200191906001019062000294565b5b509050620002c19190620002c5565b5090565b5b80821115620002e0576000816000905550600101620002c6565b5090565b600080fd5b600073ffffffffffffffffffffffffffffffffffffffff82169050919050565b60006200031682620002e9565b9050919050565b620003288162000309565b81146200033457600080fd5b50565b60008151905062000348816200031d565b92915050565b600060208284031215620003675762000366620002e4565b5b6000620003778482850162000337565b91505092915050565b7f4e487b7100000000000000000000000000000000000000000000000000000000600052602260045260246000fd5b60006002820490506001821680620003c857607f821691505b60208210811415620003df57620003de62000380565b5b50919050565b6126b780620003f56000396000f3fe608060405234801561001057600080fd5b506004361061012c5760003560e01c80638da5cb5b116100ad578063d65b5b8811610071578063d65b5b8814610333578063d6a44bcb14610351578063dd62ed3e1461036f578063de5f62681461039f578063f2fde38b146103a95761012c565b80638da5cb5b1461027b57806395d89b41146102995780639c7e0cdd146102b7578063a457c2d7146102d3578063a9059cbb146103035761012c565b806338a081f8116100f457806338a081f8146101eb578063395093511461020757806370a0823114610237578063715018a614610267578063853828b6146102715761012c565b806306fdde0314610131578063095ea7b31461014f57806318160ddd1461017f57806323b872dd1461019d578063313ce567146101cd575b600080fd5b6101396103c5565b60405161014691906119a5565b60405180910390f35b61016960048036038101906101649190611a60565b610457565b6040516101769190611abb565b60405180910390f35b610187610475565b6040516101949190611ae5565b60405180910390f35b6101b760048036038101906101b29190611b00565b61047f565b6040516101c49190611abb565b60405180910390f35b6101d5610577565b6040516101e29190611b6f565b60405180910390f35b61020560048036038101906102009190611b8a565b610580565b005b610221600480360381019061021c9190611a60565b61070f565b60405161022e9190611abb565b60405180910390f35b610251600480360381019061024c9190611bb7565b6107bb565b60405161025e9190611ae5565b60405180910390f35b61026f610803565b005b61027961088b565b005b6102836108f1565b6040516102909190611bf3565b60405180910390f35b6102a161091b565b6040516102ae91906119a5565b60405180910390f35b6102d160048036038101906102cc9190611b8a565b6109ad565b005b6102ed60048036038101906102e89190611a60565b610b4f565b6040516102fa9190611abb565b60405180910390f35b61031d60048036038101906103189190611a60565b610c3a565b60405161032a9190611abb565b60405180910390f35b61033b610c58565b6040516103489190611ae5565b60405180910390f35b610359610cfb565b6040516103669190611bf3565b60405180910390f35b61038960048036038101906103849190611c0e565b610d21565b6040516103969190611ae5565b60405180910390f35b6103a7610da8565b005b6103c360048036038101906103be9190611bb7565b610e4e565b005b6060600380546103d490611c7d565b80601f016020809104026020016040519081016040528092919081815260200182805461040090611c7d565b801561044d5780601f106104225761010080835404028352916020019161044d565b820191906000526020600020905b81548152906001019060200180831161043057829003601f168201915b5050505050905090565b600061046b610464610f46565b8484610f4e565b6001905092915050565b6000600254905090565b600061048c848484611119565b6000600160008673ffffffffffffffffffffffffffffffffffffffff1673ffffffffffffffffffffffffffffffffffffffff16815260200190815260200160002060006104d7610f46565b73ffffffffffffffffffffffffffffffffffffffff1673ffffffffffffffffffffffffffffffffffffffff16815260200190815260200160002054905082811015610557576040517f08c379a000000000000000000000000000000000000000000000000000000000815260040161054e90611d21565b60405180910390fd5b61056b85610563610f46565b858403610f4e565b60019150509392505050565b60006012905090565b600061058b336107bb565b116105cb576040517f08c379a00000000000000000000000000000000000000000000000000000000081526004016105c290611d8d565b60405180910390fd5b60001515600660149054906101000a900460ff16151514156106f1576001600660146101000a81548160ff021916908315150217905550600061060c610475565b82610615610c58565b61061f9190611ddc565b6106299190611e65565b9050610635338361139a565b600660009054906101000a900473ffffffffffffffffffffffffffffffffffffffff1673ffffffffffffffffffffffffffffffffffffffff1663a9059cbb33836040518363ffffffff1660e01b8152600401610692929190611e96565b6020604051808303816000875af11580156106b1573d6000803e3d6000fd5b505050506040513d601f19601f820116820180604052508101906106d59190611eeb565b5081600960008282546106e89190611f18565b92505081905550505b6000600660146101000a81548160ff02191690831515021790555050565b60006107b161071c610f46565b84846001600061072a610f46565b73ffffffffffffffffffffffffffffffffffffffff1673ffffffffffffffffffffffffffffffffffffffff16815260200190815260200160002060008873ffffffffffffffffffffffffffffffffffffffff1673ffffffffffffffffffffffffffffffffffffffff168152602001908152602001600020546107ac9190611f18565b610f4e565b6001905092915050565b60008060008373ffffffffffffffffffffffffffffffffffffffff1673ffffffffffffffffffffffffffffffffffffffff168152602001908152602001600020549050919050565b61080b610f46565b73ffffffffffffffffffffffffffffffffffffffff166108296108f1565b73ffffffffffffffffffffffffffffffffffffffff161461087f576040517f08c379a000000000000000000000000000000000000000000000000000000000815260040161087690611fba565b60405180910390fd5b6108896000611571565b565b6000610896336107bb565b116108d6576040517f08c379a00000000000000000000000000000000000000000000000000000000081526004016108cd90611d8d565b60405180910390fd5b6108de611637565b6108ef6108ea336107bb565b610580565b565b6000600560009054906101000a900473ffffffffffffffffffffffffffffffffffffffff16905090565b60606004805461092a90611c7d565b80601f016020809104026020016040519081016040528092919081815260200182805461095690611c7d565b80156109a35780601f10610978576101008083540402835291602001916109a3565b820191906000526020600020905b81548152906001019060200180831161098657829003601f168201915b5050505050905090565b600081116109f0576040517f08c379a00000000000000000000000000000000000000000000000000000000081526004016109e790612026565b60405180910390fd5b60001515600660149054906101000a900460ff1615151415610b31576001600660146101000a81548160ff0219169083151502179055506000610a31610c58565b9050600660009054906101000a900473ffffffffffffffffffffffffffffffffffffffff1673ffffffffffffffffffffffffffffffffffffffff166323b872dd3330856040518463ffffffff1660e01b8152600401610a9293929190612046565b6020604051808303816000875af1158015610ab1573d6000803e3d6000fd5b505050506040513d601f19601f82011682018060405250810190610ad59190611eeb565b50600081610ae1610c58565b610aeb919061207d565b90506000610af7610475565b14610b2457610b04610475565b610b0c610c58565b82610b179190611e65565b610b219190611ddc565b90505b610b2e3382611786565b50505b6000600660146101000a81548160ff02191690831515021790555050565b60008060016000610b5e610f46565b73ffffffffffffffffffffffffffffffffffffffff1673ffffffffffffffffffffffffffffffffffffffff16815260200190815260200160002060008573ffffffffffffffffffffffffffffffffffffffff1673ffffffffffffffffffffffffffffffffffffffff16815260200190815260200160002054905082811015610c1b576040517f08c379a0000000000000000000000000000000000000000000000000000000008152600401610c1290612123565b60405180910390fd5b610c2f610c26610f46565b85858403610f4e565b600191505092915050565b6000610c4e610c47610f46565b8484611119565b6001905092915050565b6000600660009054906101000a900473ffffffffffffffffffffffffffffffffffffffff1673ffffffffffffffffffffffffffffffffffffffff166370a08231306040518263ffffffff1660e01b8152600401610cb59190611bf3565b602060405180830381865afa158015610cd2573d6000803e3d6000fd5b505050506040513d601f19601f82011682018060405250810190610cf69190612158565b905090565b600660009054906101000a900473ffffffffffffffffffffffffffffffffffffffff1681565b6000600160008473ffffffffffffffffffffffffffffffffffffffff1673ffffffffffffffffffffffffffffffffffffffff16815260200190815260200160002060008373ffffffffffffffffffffffffffffffffffffffff1673ffffffffffffffffffffffffffffffffffffffff16815260200190815260200160002054905092915050565b610e4c600660009054906101000a900473ffffffffffffffffffffffffffffffffffffffff1673ffffffffffffffffffffffffffffffffffffffff166370a08231336040518263ffffffff1660e01b8152600401610e069190611bf3565b602060405180830381865afa158015610e23573d6000803e3d6000fd5b505050506040513d601f19601f82011682018060405250810190610e479190612158565b6109ad565b565b610e56610f46565b73ffffffffffffffffffffffffffffffffffffffff16610e746108f1565b73ffffffffffffffffffffffffffffffffffffffff1614610eca576040517f08c379a0000000000000000000000000000000000000000000000000000000008152600401610ec190611fba565b60405180910390fd5b600073ffffffffffffffffffffffffffffffffffffffff168173ffffffffffffffffffffffffffffffffffffffff161415610f3a576040517f08c379a0000000000000000000000000000000000000000000000000000000008152600401610f31906121f7565b60405180910390fd5b610f4381611571565b50565b600033905090565b600073ffffffffffffffffffffffffffffffffffffffff168373ffffffffffffffffffffffffffffffffffffffff161415610fbe576040517f08c379a0000000000000000000000000000000000000000000000000000000008152600401610fb590612289565b60405180910390fd5b600073ffffffffffffffffffffffffffffffffffffffff168273ffffffffffffffffffffffffffffffffffffffff16141561102e576040517f08c379a00000000000000000000000000000000000000000000000000000000081526004016110259061231b565b60405180910390fd5b80600160008573ffffffffffffffffffffffffffffffffffffffff1673ffffffffffffffffffffffffffffffffffffffff16815260200190815260200160002060008473ffffffffffffffffffffffffffffffffffffffff1673ffffffffffffffffffffffffffffffffffffffff168152602001908152602001600020819055508173ffffffffffffffffffffffffffffffffffffffff168373ffffffffffffffffffffffffffffffffffffffff167f8c5be1e5ebec7d5bd14f71427d1e84f3dd0314c0f7b2291e5b200ac8c7c3b9258360405161110c9190611ae5565b60405180910390a3505050565b600073ffffffffffffffffffffffffffffffffffffffff168373ffffffffffffffffffffffffffffffffffffffff161415611189576040517f08c379a0000000000000000000000000000000000000000000000000000000008152600401611180906123ad565b60405180910390fd5b600073ffffffffffffffffffffffffffffffffffffffff168273ffffffffffffffffffffffffffffffffffffffff1614156111f9576040517f08c379a00000000000000000000000000000000000000000000000000000000081526004016111f09061243f565b60405180910390fd5b6112048383836118e6565b60008060008573ffffffffffffffffffffffffffffffffffffffff1673ffffffffffffffffffffffffffffffffffffffff1681526020019081526020016000205490508181101561128a576040517f08c379a0000000000000000000000000000000000000000000000000000000008152600401611281906124d1565b60405180910390fd5b8181036000808673ffffffffffffffffffffffffffffffffffffffff1673ffffffffffffffffffffffffffffffffffffffff16815260200190815260200160002081905550816000808573ffffffffffffffffffffffffffffffffffffffff1673ffffffffffffffffffffffffffffffffffffffff168152602001908152602001600020600082825461131d9190611f18565b925050819055508273ffffffffffffffffffffffffffffffffffffffff168473ffffffffffffffffffffffffffffffffffffffff167fddf252ad1be2c89b69c2b068fc378daa952ba7f163c4a11628f55a4df523b3ef846040516113819190611ae5565b60405180910390a36113948484846118eb565b50505050565b600073ffffffffffffffffffffffffffffffffffffffff168273ffffffffffffffffffffffffffffffffffffffff16141561140a576040517f08c379a000000000000000000000000000000000000000000000000000000000815260040161140190612563565b60405180910390fd5b611416826000836118e6565b60008060008473ffffffffffffffffffffffffffffffffffffffff1673ffffffffffffffffffffffffffffffffffffffff1681526020019081526020016000205490508181101561149c576040517f08c379a0000000000000000000000000000000000000000000000000000000008152600401611493906125f5565b60405180910390fd5b8181036000808573ffffffffffffffffffffffffffffffffffffffff1673ffffffffffffffffffffffffffffffffffffffff1681526020019081526020016000208190555081600260008282546114f3919061207d565b92505081905550600073ffffffffffffffffffffffffffffffffffffffff168373ffffffffffffffffffffffffffffffffffffffff167fddf252ad1be2c89b69c2b068fc378daa952ba7f163c4a11628f55a4df523b3ef846040516115589190611ae5565b60405180910390a361156c836000846118eb565b505050565b6000600560009054906101000a900473ffffffffffffffffffffffffffffffffffffffff16905081600560006101000a81548173ffffffffffffffffffffffffffffffffffffffff021916908373ffffffffffffffffffffffffffffffffffffffff1602179055508173ffffffffffffffffffffffffffffffffffffffff168173ffffffffffffffffffffffffffffffffffffffff167f8be0079c531659141344cd1fd0a4f28419497f9722a3daafe3b4186f6b6457e060405160405180910390a35050565b610e10426116459190611f18565b60075410156117845760006116586118f0565b6008546116659190611ddc565b60075442611673919061207d565b61167b610c58565b6116859190611ddc565b61168f9190611e65565b9050426007819055507ff4965e66b7f5f790c6119e60fb24c83994e6f940a95a0a9e7fdd03384ccfe920816040516116c79190611ae5565b60405180910390a1600660009054906101000a900473ffffffffffffffffffffffffffffffffffffffff1673ffffffffffffffffffffffffffffffffffffffff166340c10f19306117166118f0565b8461171f610c58565b6117299190611ddc565b6117339190611e65565b6040518363ffffffff1660e01b8152600401611750929190611e96565b600060405180830381600087803b15801561176a57600080fd5b505af115801561177e573d6000803e3d6000fd5b50505050505b565b600073ffffffffffffffffffffffffffffffffffffffff168273ffffffffffffffffffffffffffffffffffffffff1614156117f6576040517f08c379a00000000000000000000000000000000000000000000000000000000081526004016117ed90612661565b60405180910390fd5b611802600083836118e6565b80600260008282546118149190611f18565b92505081905550806000808473ffffffffffffffffffffffffffffffffffffffff1673ffffffffffffffffffffffffffffffffffffffff16815260200190815260200160002060008282546118699190611f18565b925050819055508173ffffffffffffffffffffffffffffffffffffffff16600073ffffffffffffffffffffffffffffffffffffffff167fddf252ad1be2c89b69c2b068fc378daa952ba7f163c4a11628f55a4df523b3ef836040516118ce9190611ae5565b60405180910390a36118e2600083836118eb565b5050565b505050565b505050565b60006118fa610c58565b6009546119079190611f18565b905090565b600081519050919050565b600082825260208201905092915050565b60005b8381101561194657808201518184015260208101905061192b565b83811115611955576000848401525b50505050565b6000601f19601f8301169050919050565b60006119778261190c565b6119818185611917565b9350611991818560208601611928565b61199a8161195b565b840191505092915050565b600060208201905081810360008301526119bf818461196c565b905092915050565b600080fd5b600073ffffffffffffffffffffffffffffffffffffffff82169050919050565b60006119f7826119cc565b9050919050565b611a07816119ec565b8114611a1257600080fd5b50565b600081359050611a24816119fe565b92915050565b6000819050919050565b611a3d81611a2a565b8114611a4857600080fd5b50565b600081359050611a5a81611a34565b92915050565b60008060408385031215611a7757611a766119c7565b5b6000611a8585828601611a15565b9250506020611a9685828601611a4b565b9150509250929050565b60008115159050919050565b611ab581611aa0565b82525050565b6000602082019050611ad06000830184611aac565b92915050565b611adf81611a2a565b82525050565b6000602082019050611afa6000830184611ad6565b92915050565b600080600060608486031215611b1957611b186119c7565b5b6000611b2786828701611a15565b9350506020611b3886828701611a15565b9250506040611b4986828701611a4b565b9150509250925092565b600060ff82169050919050565b611b6981611b53565b82525050565b6000602082019050611b846000830184611b60565b92915050565b600060208284031215611ba057611b9f6119c7565b5b6000611bae84828501611a4b565b91505092915050565b600060208284031215611bcd57611bcc6119c7565b5b6000611bdb84828501611a15565b91505092915050565b611bed816119ec565b82525050565b6000602082019050611c086000830184611be4565b92915050565b60008060408385031215611c2557611c246119c7565b5b6000611c3385828601611a15565b9250506020611c4485828601611a15565b9150509250929050565b7f4e487b7100000000000000000000000000000000000000000000000000000000600052602260045260246000fd5b60006002820490506001821680611c9557607f821691505b60208210811415611ca957611ca8611c4e565b5b50919050565b7f45524332303a207472616e7366657220616d6f756e742065786365656473206160008201527f6c6c6f77616e6365000000000000000000000000000000000000000000000000602082015250565b6000611d0b602883611917565b9150611d1682611caf565b604082019050919050565b60006020820190508181036000830152611d3a81611cfe565b9050919050565b7f54616972726575783a20796f75206172652061626c6520746f20737065616b00600082015250565b6000611d77601f83611917565b9150611d8282611d41565b602082019050919050565b60006020820190508181036000830152611da681611d6a565b9050919050565b7f4e487b7100000000000000000000000000000000000000000000000000000000600052601160045260246000fd5b6000611de782611a2a565b9150611df283611a2a565b9250817fffffffffffffffffffffffffffffffffffffffffffffffffffffffffffffffff0483118215151615611e2b57611e2a611dad565b5b828202905092915050565b7f4e487b7100000000000000000000000000000000000000000000000000000000600052601260045260246000fd5b6000611e7082611a2a565b9150611e7b83611a2a565b925082611e8b57611e8a611e36565b5b828204905092915050565b6000604082019050611eab6000830185611be4565b611eb86020830184611ad6565b9392505050565b611ec881611aa0565b8114611ed357600080fd5b50565b600081519050611ee581611ebf565b92915050565b600060208284031215611f0157611f006119c7565b5b6000611f0f84828501611ed6565b91505092915050565b6000611f2382611a2a565b9150611f2e83611a2a565b9250827fffffffffffffffffffffffffffffffffffffffffffffffffffffffffffffffff03821115611f6357611f62611dad565b5b828201905092915050565b7f4f776e61626c653a2063616c6c6572206973206e6f7420746865206f776e6572600082015250565b6000611fa4602083611917565b9150611faf82611f6e565b602082019050919050565b60006020820190508181036000830152611fd381611f97565b9050919050565b7f54616972726575783a20596f75206172652061205a45524f0000000000000000600082015250565b6000612010601883611917565b915061201b82611fda565b602082019050919050565b6000602082019050818103600083015261203f81612003565b9050919050565b600060608201905061205b6000830186611be4565b6120686020830185611be4565b6120756040830184611ad6565b949350505050565b600061208882611a2a565b915061209383611a2a565b9250828210156120a6576120a5611dad565b5b828203905092915050565b7f45524332303a2064656372656173656420616c6c6f77616e63652062656c6f7760008201527f207a65726f000000000000000000000000000000000000000000000000000000602082015250565b600061210d602583611917565b9150612118826120b1565b604082019050919050565b6000602082019050818103600083015261213c81612100565b9050919050565b60008151905061215281611a34565b92915050565b60006020828403121561216e5761216d6119c7565b5b600061217c84828501612143565b91505092915050565b7f4f776e61626c653a206e6577206f776e657220697320746865207a65726f206160008201527f6464726573730000000000000000000000000000000000000000000000000000602082015250565b60006121e1602683611917565b91506121ec82612185565b604082019050919050565b60006020820190508181036000830152612210816121d4565b9050919050565b7f45524332303a20617070726f76652066726f6d20746865207a65726f2061646460008201527f7265737300000000000000000000000000000000000000000000000000000000602082015250565b6000612273602483611917565b915061227e82612217565b604082019050919050565b600060208201905081810360008301526122a281612266565b9050919050565b7f45524332303a20617070726f766520746f20746865207a65726f20616464726560008201527f7373000000000000000000000000000000000000000000000000000000000000602082015250565b6000612305602283611917565b9150612310826122a9565b604082019050919050565b60006020820190508181036000830152612334816122f8565b9050919050565b7f45524332303a207472616e736665722066726f6d20746865207a65726f20616460008201527f6472657373000000000000000000000000000000000000000000000000000000602082015250565b6000612397602583611917565b91506123a28261233b565b604082019050919050565b600060208201905081810360008301526123c68161238a565b9050919050565b7f45524332303a207472616e7366657220746f20746865207a65726f206164647260008201527f6573730000000000000000000000000000000000000000000000000000000000602082015250565b6000612429602383611917565b9150612434826123cd565b604082019050919050565b600060208201905081810360008301526124588161241c565b9050919050565b7f45524332303a207472616e7366657220616d6f756e742065786365656473206260008201527f616c616e63650000000000000000000000000000000000000000000000000000602082015250565b60006124bb602683611917565b91506124c68261245f565b604082019050919050565b600060208201905081810360008301526124ea816124ae565b9050919050565b7f45524332303a206275726e2066726f6d20746865207a65726f2061646472657360008201527f7300000000000000000000000000000000000000000000000000000000000000602082015250565b600061254d602183611917565b9150612558826124f1565b604082019050919050565b6000602082019050818103600083015261257c81612540565b9050919050565b7f45524332303a206275726e20616d6f756e7420657863656564732062616c616e60008201527f6365000000000000000000000000000000000000000000000000000000000000602082015250565b60006125df602283611917565b91506125ea82612583565b604082019050919050565b6000602082019050818103600083015261260e816125d2565b9050919050565b7f45524332303a206d696e7420746f20746865207a65726f206164647265737300600082015250565b600061264b601f83611917565b915061265682612615565b602082019050919050565b6000602082019050818103600083015261267a8161263e565b905091905056fea2646970667358221220addcda2ebeab55ce198a29d9716e44ceb4f151a5dcb80d546c1492a7534845bd64736f6c634300080b0033",
  "immutableReferences": {},
  "source": "// SPDX-License-Identifier: GNU\npragma solidity ^0.8.11;\n\nimport \"./MPs.sol\";\n\nimport \"@openzeppelin/contracts/token/ERC20/ERC20.sol\";\nimport \"@openzeppelin/contracts/token/ERC20/extensions/ERC20Burnable.sol\";\nimport \"@openzeppelin/contracts/access/Ownable.sol\";\n\n\ncontract Tairreux is ERC20, Ownable{\n\n\taddress public parole;\n\n\tbool drone = false;\n\n\tuint origine;\n\tuint grow = 2;\n\tuint less;\n\n\tmodifier onlyTree(){ \n\t\trequire(balanceOf(msg.sender) > 0, \"Tairreux: you are able to speak\");\n\t\t_;\n\t}\n\n\tevent Compute(uint shares);\n\n\tconstructor(address token) ERC20(\"stake MP swap token\", \"StMPs\") {\n\t\torigine = block.timestamp;\n\t\tparole = token;\n\t}\n\t\n\tfunction bourse() public view returns(uint){\n\t\treturn IERC20(parole).balanceOf(address(this));\n\t} \n\n\tfunction taire(uint amount) public {\n\t\trequire(amount > 0, \"Tairreux: You are a ZERO\");\n\t\tif (drone == false) {\n\t\t\tdrone = true;\n\t\t\tuint last = bourse();\n\t\t\tIERC20(parole).transferFrom(msg.sender, address(this), amount);\n\t\t\tuint substrat = bourse() - last;\n\t\t\tif (totalSupply() != 0){\n\t\t\t\tsubstrat = (substrat/bourse())*totalSupply();\t\n\t\t\t}\n\t\t\t_mint(msg.sender, substrat);\n\t\t }\n\t\tdrone = false;\n\t} \n\n  function depositAll() public {\n  \ttaire(IERC20(parole).balanceOf(msg.sender));\n  }\n\n\tfunction terre(uint substrat) public onlyTree {\n\t\tif (drone == false){\n\t\t\tdrone = true;\n\t\t\tuint amount = bourse() * substrat / totalSupply();\n\t\t\t_burn(msg.sender, substrat);\n\t\t\tIERC20(parole).transfer(msg.sender, amount);\n\t\t\tless+=substrat;\n\t\t\t}\n\t\tdrone = false;\n}\n\n  function withdrawAll() public onlyTree {\n\t\t_computeShares();\n    terre(balanceOf(msg.sender));\n  }\n  \n\tfunction _computeShares() private {\n\t\tif(origine < block.timestamp + 3600){\n\t\t\tuint shares = bourse() * (block.timestamp - origine) / (grow * lessIsMore());\n\t\t\torigine = block.timestamp;\n\t\t\temit Compute(shares);\n\n\t\t\tRogue(parole).mint(address(this), bourse() * shares / lessIsMore());\n\t\t}\n\t} \n\t\n\tfunction lessIsMore() private view returns(uint){\n\t\treturn less + bourse();\t\n\t}\n}\n",
  "sourcePath": "/home/binderl/Documents/GIT/MP/contracts/stMPs.sol",
  "compiler": {
    "name": "solc",
    "version": "0.8.11+commit.d7f03943.Emscripten.clang"
  },
  "schemaVersion": "3.4.3",
  "updatedAt": "2022-01-25T12:20:44.662Z",
  "networkType": "ethereum",
  "devdoc": {
    "kind": "dev",
    "methods": {
      "allowance(address,address)": {
        "details": "See {IERC20-allowance}."
      },
      "approve(address,uint256)": {
        "details": "See {IERC20-approve}. Requirements: - `spender` cannot be the zero address."
      },
      "balanceOf(address)": {
        "details": "See {IERC20-balanceOf}."
      },
      "decimals()": {
        "details": "Returns the number of decimals used to get its user representation. For example, if `decimals` equals `2`, a balance of `505` tokens should be displayed to a user as `5.05` (`505 / 10 ** 2`). Tokens usually opt for a value of 18, imitating the relationship between Ether and Wei. This is the value {ERC20} uses, unless this function is overridden; NOTE: This information is only used for _display_ purposes: it in no way affects any of the arithmetic of the contract, including {IERC20-balanceOf} and {IERC20-transfer}."
      },
      "decreaseAllowance(address,uint256)": {
        "details": "Atomically decreases the allowance granted to `spender` by the caller. This is an alternative to {approve} that can be used as a mitigation for problems described in {IERC20-approve}. Emits an {Approval} event indicating the updated allowance. Requirements: - `spender` cannot be the zero address. - `spender` must have allowance for the caller of at least `subtractedValue`."
      },
      "increaseAllowance(address,uint256)": {
        "details": "Atomically increases the allowance granted to `spender` by the caller. This is an alternative to {approve} that can be used as a mitigation for problems described in {IERC20-approve}. Emits an {Approval} event indicating the updated allowance. Requirements: - `spender` cannot be the zero address."
      },
      "name()": {
        "details": "Returns the name of the token."
      },
      "owner()": {
        "details": "Returns the address of the current owner."
      },
      "renounceOwnership()": {
        "details": "Leaves the contract without owner. It will not be possible to call `onlyOwner` functions anymore. Can only be called by the current owner. NOTE: Renouncing ownership will leave the contract without an owner, thereby removing any functionality that is only available to the owner."
      },
      "symbol()": {
        "details": "Returns the symbol of the token, usually a shorter version of the name."
      },
      "totalSupply()": {
        "details": "See {IERC20-totalSupply}."
      },
      "transfer(address,uint256)": {
        "details": "See {IERC20-transfer}. Requirements: - `recipient` cannot be the zero address. - the caller must have a balance of at least `amount`."
      },
      "transferFrom(address,address,uint256)": {
        "details": "See {IERC20-transferFrom}. Emits an {Approval} event indicating the updated allowance. This is not required by the EIP. See the note at the beginning of {ERC20}. Requirements: - `sender` and `recipient` cannot be the zero address. - `sender` must have a balance of at least `amount`. - the caller must have allowance for ``sender``'s tokens of at least `amount`."
      },
      "transferOwnership(address)": {
        "details": "Transfers ownership of the contract to a new account (`newOwner`). Can only be called by the current owner."
      }
    },
    "version": 1
  },
  "userdoc": {
    "kind": "user",
    "methods": {},
    "version": 1
  }
}